:020000040000FA
:0400000079EF3FF065
:107EF0000100F00EF66E7E0EF76E000EF86E0900B1
:107F0000F5CF03F00900F5CF04F0026A016A000121
:107F10008AEF3FF00B0EBA6EB196B19C0B0ECF6E8E
:107F2000DC0ECE6EBB68BC68F10ECD6E9492F00E86
:107F3000936E010E816EA1A0A0EF3FF0A2EF3FF083
:107F4000E2EF3FF001500210D8A4A9EF3FF0ABEFF1
:107F50003FF0C4EF3FF0D8900334036E0434046E56
:107F600004BEBCEF3FF0045009E1090E035CD8A049
:107F7000BCEF3FF0BEEF3FF0DFEF3FF0000E046ECE
:107F8000010E036EDFEF3FF004BED0EF3FF0045070
:107F900009E1020E035CD8A0D0EF3FF0D2EF3FF032
:107FA000DBEF3FF004340430056E0330036E05C090
:107FB00004F0DFEF3FF0000E046E080E036E03C006
:107FC00081FFA19081B8E7EF3FF0E9EF3FF09BEF31
:107FD0003FF001500210D8A4F0EF3FF0F2EF3FF075
:107FE000F8EF3FF0000E026E010E016E9BEF3FF0C6
:107FF000000E026E000E016E9BEF3FF000EF00F0EE
:020000040020DA
:08000000FFFFFFFFFFFFFFFF00
:020000040030CA
:0E00000000051F1EFF8185FF0FC00FE00F409F
:00000001FF
