:020000040000FA
:0400000007EF00F016
:10000800068209ED00F070EF00F00600F0A60FEF91
:1000180000F011EF00F027EF00F0F0A016EF00F06D
:1000280018EF00F027EF00F00A0EBE601EEF00F098
:1000380020EF00F024EF00F0000EBE6E26EF00F077
:100048000A0EBE5EF090F0A82CEF00F02EEF00F044
:1000580055EF00F0F0A233EF00F035EF00F055EF68
:1000680000F0BE50016E026A0A0E0126000E02223E
:10007800CB50036E046A0150035C0450800A056E7D
:100088000250800A0558D8B04CEF00F04EEF00F04F
:1000980052EF00F0CBCFBEFF54EF00F00A0EBE26A1
:1000A800F09206921100D08EF28EF29CF086F08CBF
:1000B800F19AF0909382F088F08EF198F092938400
:1000C8009494070ECA6E0F0EBD6ECB68000EBE6EFE
:1000D8006CEF00F007EF00F006900692000157EF72
:0200E80000F026
:020000040020DA
:08000000FFFFFFFFFFFFFFFF00
:020000040030CA
:0E000000000C1F1EFF8185FF0FC00FE00F4098
:00000001FF
