:020000040000FA
:040000004BEF3EF094
:107C960000014EEF3EF00E0EC16EAC0EC06E010E30
:107CA600C26E000E936EC282C2B25CEF3EF05EEF11
:107CB6003EF057EF3EF0C350C4CF0FF0106A0FC02E
:107CC60010F00F6A0F26000E10220FC001F010C030
:107CD60002F0000E02BEFF0E036E046E010E26ECCD
:107CE6003FF001C011F002C012F003C013F004C04F
:107CF60014F0000E016E000E026EFA0E036E430EB5
:107D0600046E11C005F012C006F013C007F014C0CF
:107D160008F0A4EC3EF0D8B093EF3EF095EF3EF0BD
:107D260098EF3EF0819899EF3EF08188820E0F6EB3
:107D3600DE0EE82EFED70F2EFCD756EF3EF000EFF4
:107D460000F0000E0114096E000E02140A6E800E79
:107D560003140B6E7F0E04140C6E09500A100B10E0
:107D66000C10D8A4B9EF3EF0BBEF3EF0C3EF3EF0E7
:107D7600000E016E000E026E000E036E000E046E03
:107D8600000E0514096E000E06140A6E800E071406
:107D96000B6E7F0E08140C6E09500A100B100C1097
:107DA600D8A4D8EF3EF0DAEF3EF0E2EF3EF0000E58
:107DB600056E000E066E000E076E000E086E04AE0F
:107DC600E7EF3EF0E9EF3EF0F2EF3EF0016C021E07
:107DD600D8B0022A031ED8B0032A800E045608AE75
:107DE600F7EF3EF0F9EF3EF002EF3FF0056C061EAE
:107DF600D8B0062A071ED8B0072A800E0856000EED
:107E0600011A000E021A000E031A800E041A000E42
:107E1600051A000E061A000E071A800E081A0550DB
:107E2600015C065002580750035808500458D8B051
:107E36001FEF3FF021EF3FF024EF3FF0D89025EF02
:107E46003FF0D8801200096E0950D8B42DEF3FF0EC
:107E56002FEF3FF051EF3FF004BE36EF3FF034EF27
:107E66003FF051EF3FF001C005F002C006F003C03D
:107E760007F004C008F0051E061E071E081E052A88
:107E8600000E06220722082205C00BF006C00CF0E1
:107E960007C00DF008C00EF059EF3FF001C00BF01F
:107EA60002C00CF003C00DF004C00EF00150021029
:107EB60003100410D8A462EF3FF064EF3FF06EEFBA
:107EC6003FF0000E016E000E026E000E036E000EF5
:107ED600046EFFEF3FF0960E0A6E78EF3FF00A2A27
:107EE600D8900E320D320C320B32000E0B14056E8A
:107EF600000E0C14066E000E0D14076EFE0E0E1408
:107F0600086E0550061007100810D8A48DEF3FF034
:107F16008FEF3FF072EF3FF09DEF3FF00A2A010E20
:107F26000B26000E0C220D220E22D8900E320D3298
:107F36000C320B32000E0B14056E000E0C14066E7E
:107F4600000E0D14076EFF0E0E14086E0550061077
:107F560007100810D8A4B2EF3FF0B4EF3FF091EF4E
:107F66003FF0BCEF3FF00A06D8900B360C360D36C4
:107F76000E360DBEC1EF3FF0C3EF3FF0CBEF3FF043
:107F8600020E0A60C9EF3FF0CBEF3FF0B6EF3FF0CD
:107F96000AB0D0EF3FF0D2EF3FF0D3EF3FF00D9EA7
:107FA600D8900A320AC005F0066A076A086A05C050
:107FB60008F0076A066A056A05500B1206500C128D
:107FC60007500D1208500E120950D8B4EDEF3FF0CD
:107FD600EFEF3FF0F7EF3FF004BEF6EF3FF0F4EFC0
:107FE6003FF0F7EF3FF00E8E0BC001F00CC002F031
:0A7FF6000DC003F00EC004F01200ED
:020000040020DA
:08000000FFFFFFFFFFFFFFFF00
:020000040030CA
:0E000000000B1F1EFF8185FF0FC00FE00F4099
:00000001FF
