:0400000007EF00F016
:0A0008005A828AED0FF034EF0FF07A
:100800000054656D702E4E6F773A004D61783A2036
:1008100000000450800B0D6E045004240F6E03AED4
:1008200014EF04F016EF04F017EF04F00F800F50F0
:10083000D8B41DEF04F01FEF04F034EF04F00F28DC
:10084000D8A425EF04F027EF04F02FEF04F0000EFA
:10085000016E000E026E000E036E000E046E038E1B
:10086000000E046E3CEF04F0000E016E000E026EEE
:10087000000E036E000E046E0850800B0E6E0D50BD
:100880000E18D8B446EF04F048EF04F049EF04F036
:100890000D8C085008240E6E07AE51EF04F053EF94
:1008A00004F054EF04F00E800E50D8B45AEF04F068
:1008B0005CEF04F071EF04F00E28D8A462EF04F0AE
:1008C00064EF04F06CEF04F0000E056E000E066E8F
:1008D000000E076E000E086E078E000E086E79EF90
:1008E00004F0000E056E000E066E000E076E000E80
:1008F000086E0F500E5CD8B080EF04F082EF04F069
:10090000A9EF04F00DAC87EF04F089EF04F08BEF52
:1009100004F0800E0D1A0FC010F00EC00FF010C0C2
:100920000EF001C010F005C001F010C005F002C0CB
:1009300010F006C002F010C006F003C010F007C0AF
:1009400003F010C007F004C010F008C004F010C09D
:1009500008F0000E106E0F500EC009F00A6A095E12
:10096000000E0A5A0ABEBEEF04F00A5009E11A0E40
:10097000095CD8A0BEEF04F0C0EF04F0F7EF04F07C
:100980000150021003100410D8A4C9EF04F0CCEFFA
:1009900004F0010ECDEF04F0000E106E000E016E9B
:1009A000000E026E000E036E000E046E0EC00FF0FD
:1009B00000EF05F010A0DFEF04F0E1EF04F0E7EF47
:1009C00004F0D89010300109106EE9EF04F0D890CF
:1009D000103201A0EEEF04F0F0EF04F0F1EF04F0BC
:1009E000108E043404320332023201320F2A0E50C8
:1009F0000F5CD8A0FEEF04F000EF05F0DAEF04F092
:100A00000DBC05EF05F007EF05F047EF05F00F50BF
:100A1000D8A40DEF05F00FEF05F019EF05F0000E6B
:100A2000016E000E026E000E036E000E046E68EF83
:100A300006F00550012606500222075003220850F6
:100A4000042204A026EF05F028EF05F0D4EF05F00E
:100A500010A02DEF05F02FEF05F035EF05F0D89041
:100A600010300109106E37EF05F0D890103201A058
:100A70003CEF05F03EEF05F03FEF05F0108E04343B
:100A800004320332023201320F2AD4EF05F005504E
:100A9000015C06500258075003580450800A096E42
:100AA0000850800A0958D8B058EF05F05AEF05F001
:100AB00085EF05F00150055C096E025006580A6E7C
:100AC000035007580B6E045008580C6EFF0E092493
:100AD000016EFF0E0A20026EFF0E0B20036EFF0E4A
:100AE0000C20046E800E0D1A106C1050D8A47BEFF1
:100AF00005F07DEF05F08DEF05F0010E0126000EEB
:100B00000222032204228DEF05F00550015E0650FB
:100B1000025A0750035A0850045A01500210031099
:100B20000410D8A496EF05F098EF05F0CDEF05F08E
:100B30001050D8A49EEF05F0A0EF05F0CDEF05F022
:100B4000000E016E000E026E000E036E000E046EAB
:100B500068EF06F0D890013602360336043610AE40
:100B6000B4EF05F0B6EF05F0B7EF05F0018010A087
:100B7000BCEF05F0BEEF05F0C2EF05F0D8801036EF
:100B8000C4EF05F0D89010360F50D8B4CAEF05F076
:100B9000CCEF05F0CDEF05F00F0603AED2EF05F078
:100BA000D4EF05F0AAEF05F0000E0E6E10AEDBEFED
:100BB00005F0DDEF05F0F5EF05F010C009F07F0E50
:100BC0000916D8B4E6EF05F0E8EF05F0ECEF05F014
:100BD000010E0E6EF5EF05F001A0F1EF05F0F3EF59
:100BE00005F0F5EF05F0E8EF05F00E50D8B4FBEF97
:100BF00005F0FDEF05F028EF06F0010E0126000ECE
:100C000002220322042204A008EF06F00AEF06F0F5
:100C100028EF06F001C009F002C00AF003C00BF093
:100C200004C00CF00C340C320B320A32093209C009
:100C300001F00AC002F00BC003F00CC004F00F2852
:100C4000D8B425EF06F027EF06F028EF06F00F2ABC
:100C50000F28D8B42EEF06F030EF06F038EF06F08C
:100C60000F50D8A436EF06F038EF06F04AEF06F042
:100C7000000E016E000E026E000E036E000E046E7A
:100C80000F50D8A446EF06F048EF06F04AEF06F002
:100C9000000E0D6E0FA04FEF06F051EF06F054EF6F
:100CA00006F0038E55EF06F0039ED8900F30046EC9
:100CB0000DAE5DEF06F05FEF06F060EF06F0048E1C
:100CC00001C001F002C002F003C003F004C004F050
:100CD00012000450800B0D6E04500424136E03AEFA
:100CE00074EF06F076EF06F077EF06F013801350FE
:100CF000D8B47DEF06F07FEF06F092EF06F01328F0
:100D0000D8A485EF06F087EF06F08FEF06F0000E0F
:100D1000016E000E026E000E036E000E046E038E56
:100D20009AEF06F0000E016E000E026E000E036ECA
:100D3000000E046E0850800B0D1A08500824126E25
:100D400007AEA5EF06F0A7EF06F0A8EF06F01280B9
:100D50001250D8B4AEEF06F0B0EF06F0C3EF06F0D5
:100D60001228D8A4B6EF06F0B8EF06F0C0EF06F0F0
:100D7000000E056E000E066E000E076E000E086E69
:100D8000078ECBEF06F0000E056E000E066E000E0D
:100D9000076E000E086E1250D8B4D1EF06F0D3EFF4
:100DA00006F0DBEF06F01350D8A4D9EF06F0DBEF26
:100DB00006F0E5EF06F0000E016E000E026E000E6A
:100DC000036E000E046E7DEF08F007500102F3CFB2
:100DD00018F0F4CF19F018500E6E0F6A106A116AED
:100DE0001950146E156A166A176A06500202F3CF7C
:100DF00018F0F4CF19F018500E26000E0F22102212
:100E0000112219501426000E152216221722055001
:100E10000302F3CF18F0F4CF19F018500E26000E8D
:100E20000F221022112219501426000E152216220C
:100E3000172210C011F00FC010F00EC00FF00E6A94
:100E400005500202F3CF18F0F4CF19F018500E2617
:100E500019500F22000E1022000E1122065001021E
:100E6000F3CF18F0F4CF19F018500E2619500F22B6
:100E7000000E1022000E112210C011F00FC010F051
:100E80000EC00FF00E6A05500102F3CF18F0F4CF38
:100E900019F018500E2619500F22000E1022000EC5
:100EA000112207500202F3CF18F0F4CF19F01850B6
:100EB000142619501522000E1622000E1722065075
:100EC0000302F3CF18F0F4CF19F01850142619507C
:100ED0001522000E1622000E172207500302F3CF30
:100EE00018F0F4CF19F01850096E19500A6E0B6AF9
:100EF0000C6A0BC00CF00AC00BF009C00AF0096ABA
:100F0000095014260A5015220B5016220C50172295
:100F10000EC009F00FC00AF010C00BF011C00CF0A9
:100F2000190E98EF07F0D8900C320B320A320932C2
:100F3000E82E93EF07F0095014260A5015220B50A3
:100F400016220C50172210C011F00FC010F00EC066
:100F50000FF00E6A125013C009F00A6A0926000E3B
:100F60000A22820E0924186EFF0E0A20196ECEEF97
:100F700007F0D890143615361636173611AEC3EF73
:100F800007F0C5EF07F0C6EF07F01480D8900E36D3
:100F90000F36103611361806D8A0190616AED3EF44
:100FA00007F0D5EF07F0B9EF07F0000E126E11AEA3
:100FB000DCEF07F0DEEF07F002EF08F0FF0E0E1493
:100FC000096EFF0E0F140A6EFF0E10140B6E7F0ECB
:100FD00011140C6E09500A100B100C10D8B4F3EF5A
:100FE00007F0F5EF07F0F9EF07F0010E126E02EFD0
:100FF00008F014A0FEEF07F000EF08F002EF08F091
:10100000F5EF07F01250D8B408EF08F00AEF08F037
:101010002EEF08F0010E1426000E152216221722BC
:1010200017A015EF08F017EF08F02EEF08F014C026
:1010300009F015C00AF016C00BF017C00CF00C3404
:101040000C320B320A32093209C014F00AC015F012
:101050000BC016F00CC017F0184A192A19BE39EF48
:1010600008F0195008E11828D8A039EF08F03BEF34
:1010700008F045EF08F0000E146E000E156E800E9D
:10108000166E7F0E176E73EF08F019BE52EF08F060
:10109000195006E11804D8B050EF08F052EF08F0EC
:1010A0005EEF08F0000E146E000E156E000E166E48
:1010B000000E176E000E0D6E73EF08F018C013F0DF
:1010C000FF0E1416FF0E15167F0E1616000E1716BD
:1010D00013A06DEF08F06FEF08F070EF08F0168EB8
:1010E000D8901330176E0D50171214C001F015C0B0
:1010F00002F016C003F017C004F012001D50800B60
:101100002A6E1D501D24316E1CAE89EF08F08BEF46
:1011100008F08CEF08F031803150D8B492EF08F02D
:1011200094EF08F0A9EF08F03128D8A49AEF08F05E
:101130009CEF08F0A4EF08F0000E1A6E000E1B6E74
:10114000000E1C6E000E1D6E1C8E000E1D6EB1EF8B
:1011500008F0000E1A6E000E1B6E000E1C6E000EC4
:101160001D6E2150800B2A1A21502124326E20AE90
:10117000BCEF08F0BEEF08F0BFEF08F0328032504D
:10118000D8B4C5EF08F0C7EF08F0DCEF08F032285C
:10119000D8A4CDEF08F0CFEF08F0D7EF08F0000E9D
:1011A0001E6E000E1F6E000E206E000E216E208E31
:1011B000000E216EE4EF08F0000E1E6E000E1F6E92
:1011C000000E206E000E216E1E501F1020102110E8
:1011D000D8A4EDEF08F0EFEF08F007EF09F0000EEC
:1011E0001A6E000E1B6E000E1C6E000E1D6E800E21
:1011F0001C127F0E1D122A501D121AC01AF01BC09D
:101200001BF01CC01CF01DC01DF04AEF0AF031504D
:10121000D8A40DEF09F00FEF09F019EF09F0000E57
:101220001A6E000E1B6E000E1C6E000E1D6E4AEF35
:101230000AF0325031C022F0236A225E000E235A97
:101240007F0E22242B6E000E23202C6E1AC026F057
:101250001BC027F01CC028F01DC029F0000E1A6E1C
:10126000000E1B6E000E1C6E000E1D6E000E2D6E0D
:10127000000E2E6E000E2F6E000E306E000E326EBF
:101280007AEF09F03250D8B448EF09F04AEF09F08C
:1012900061EF09F0D8902636273628362936D890BF
:1012A0001A361B361C361D3630AE59EF09F05BEF8F
:1012B00009F05CEF09F01A80D8902D362E362F36C3
:1012C00030361E50265C1F50275820502858215079
:1012D0002958D8A06EEF09F070EF09F079EF09F006
:1012E000308C1E50265E1F50275A2050285A2150FD
:1012F000295A322A190E326480EF09F082EF09F080
:1013000042EF09F02650271028102910D8B48BEF8F
:1013100009F08DEF09F0A5EF09F02D80A5EF09F098
:10132000D8901A361B361C361D3630AE9AEF09F0AF
:101330009CEF09F09DEF09F01A80D8902D362E36DB
:101340002F3630362B06D8A02C061CAEAAEF09F09B
:10135000ACEF09F090EF09F0000E326E30AEB3EF53
:1013600009F0B5EF09F0D9EF09F0FF0E2D14226E48
:10137000FF0E2E14236EFF0E2F14246E7F0E3014DA
:10138000256E2250231024102510D8B4CAEF09F07E
:10139000CCEF09F0D0EF09F0010E326ED9EF09F071
:1013A0001AA0D5EF09F0D7EF09F0D9EF09F0CCEF8B
:1013B00009F03250D8B4DFEF09F0E1EF09F005EFA2
:1013C0000AF0010E1A26000E1B221C221D221DA04F
:1013D000ECEF09F0EEEF09F005EF0AF01AC022F089
:1013E0001BC023F01CC024F01DC025F0253425327D
:1013F00024322332223222C01AF023C01BF024C030
:101400001CF025C01DF02B4A2C2A2CBE10EF0AF030
:101410002C5008E12B28D8A010EF0AF012EF0AF0A8
:101420001DEF0AF0000E2C6E2B68000E1A6E000ED7
:101430001B6E000E1C6E000E1D6E2CBE2AEF0AF0F5
:101440002C5006E12B04D8B028EF0AF02AEF0AF05E
:1014500038EF0AF0000E2C6E000E2B6E000E1A6E86
:10146000000E1B6E000E1C6E000E1D6E000E2A6E0E
:101470002BC031F031A03FEF0AF041EF0AF044EF0A
:101480000AF01C8E45EF0AF01C9ED89031301D6E7C
:10149000FBEF08F01200D08EF28EF29CF288F292EE
:1014A000F18CF086F090F18AF08C000E946E090EAB
:1014B000C26E0C0EC16E8C0EC06E32EC10F061EC80
:1014C0000FF0828A4EC00FF04FC010F050C011F0E4
:1014D00051C012F058C001F059C002F0000E02BE17
:1014E000FF0E036E046E010E63EC0CF001C013F0EE
:1014F00002C014F003C015F004C016F084EC0EF026
:10150000D8A085EF0AF087EF0AF08AEF0AF082840C
:10151000BCEF0AF04EC00FF04FC010F050C011F0F9
:1015200051C012F0FB0E4A6EFF0E4B6E58C04CF0CD
:1015300059C04DF04A504C264B504D224CC001F042
:101540004DC002F0000E02BEFF0E036E046E010ECF
:1015500063EC0CF001C013F002C014F003C015F0EE
:1015600004C016F084EC0EF0D8B0B9EF0AF0BBEF6F
:101570000AF0BCEF0AF08294C2824EEF0BF0C35027
:10158000C4CF4AF04B6A4AC04BF04A6A4A12000E76
:101590004B124AC001F04BC002F0000E02BEFF0E1B
:1015A000036E046E010E63EC0CF001C04EF002C03D
:1015B0004FF003C050F004C051F0000E056E000E55
:1015C000066E7A0E076E440E086E4EC001F04FC0D4
:1015D00002F050C003F051C004F069EC06F001C005
:1015E0001AF002C01BF003C01CF004C01DF0000E76
:1015F0001E6E000E1F6E000E206E450E216E7EECDC
:1016000008F01AC04EF01BC04FF01CC050F01DC0B7
:1016100051F015EC10F0010E056E080E066E06EC8A
:101620000FF04EC044F04FC045F050C046F051C0DE
:1016300047F0000E496E020E486EF0EC0FF0900E6F
:1016400005EC10F00B0E056E080E066E06EC0FF0A2
:1016500058C001F059C002F0000E02BEFF0E036E2A
:10166000046E010E63EC0CF001C044F002C045F0C2
:1016700003C046F004C047F0000E496E020E486EEB
:10168000F0EC0FF0020E4B6E860E4A6E990EE82EAD
:10169000FED74A2EFCD74B2EFAD700F0C2B253EF3A
:1016A0000BF055EF0BF0BFEF0AF0040061EF0AF00A
:1016B00007EF00F052C011F053C012F054C013F005
:1016C00055C014F001C011F002C012F003C013F0B5
:1016D00004C014F0810E056EFF0E066E11C007F0F7
:1016E00012C008F013C009F014C00AF0180E7EEF03
:1016F0000BF0D8900A32093208320732E82E79EF1F
:101700000BF0075005240F6E000E0620106E10BE61
:1017100093EF0BF0105009E1170E0F5CD8A093EF78
:101720000BF095EF0BF09FEF0BF001C001F002C042
:1017300002F003C003F004C004F062EF0CF010BE2E
:10174000A4EF0BF0A6EF0BF016EF0CF00FC005F0B6
:10175000FF0E066EFF0E076E7F0E086E000E096EFE
:101760000566B5EF0BF0BDEF0BF009340932083216
:1017700007320632052EB0EF0BF006C00BF007C0A3
:101780000CF008C00DF009C00EF00B501114056EDE
:101790000C501214066E0D501314076E0E501414D4
:1017A000086E0550061007100810D8A4DAEF0BF0E9
:1017B000DCEF0BF0DEEF0BF095EF0BF011C005F056
:1017C00012C006F013C007F014C008F0200EEEEFB0
:1017D0000BF0D8900832073206320532E82EE9EFD6
:1017E0000BF00550061007100810D8B4FAEF0BF0F4
:1017F000FCEF0BF004EF0CF00B5011260C501222F2
:101800000D5013220E5014220B1C056E0C1C066E7C
:101810000D1C076E0E1C086E055011160650121690
:1018200007501316085014165AEF0CF011C005F0AB
:1018300012C006F013C007F014C008F0200E26EF07
:101840000CF0D8900832073206320532E82E21EF2C
:101850000CF00550061007100810D8A432EF0CF059
:1018600034EF0CF03EEF0CF0000E116E000E126E15
:10187000000E136E000E146E5AEF0CF0D890113457
:10188000056E1234066E1334076E1434086E05505C
:10189000061007100810D8B450EF0CF052EF0CF0FF
:1018A0005AEF0CF0000E116E000E126E800E136EC9
:1018B000BF0E146E11C001F012C002F013C003F08D
:1018C00014C004F01200096E0950D8B46AEF0CF08D
:1018D0006CEF0CF08EEF0CF004BE73EF0CF071EFB8
:1018E0000CF08EEF0CF001C005F002C006F003C052
:1018F00007F004C008F0051E061E071E081E052A74
:10190000000E06220722082205C00BF006C00CF0CC
:1019100007C00DF008C00EF096EF0CF001C00BF000
:1019200002C00CF003C00DF004C00EF00150021014
:1019300003100410D8A49FEF0CF0A1EF0CF0ABEF54
:101940000CF0000E016E000E026E000E036E000E13
:10195000046E3CEF0DF0960E0A6EB5EF0CF00A2AFD
:10196000D8900E320D320C320B32000E0B14056E75
:10197000000E0C14066E000E0D14076EFE0E0E14F3
:10198000086E0550061007100810D8A4CAEF0CF016
:10199000CCEF0CF0AFEF0CF0DAEF0CF00A2A010EEE
:1019A0000B26000E0C220D220E22D8900E320D3284
:1019B0000C320B32000E0B14056E000E0C14066E6A
:1019C000000E0D14076EFF0E0E14086E0550061063
:1019D00007100810D8A4EFEF0CF0F1EF0CF0CEEFE9
:1019E0000CF0F9EF0CF00A06D8900B360C360D36D9
:1019F0000E360DBEFEEF0CF000EF0DF008EF0DF00F
:101A0000020E0A6006EF0DF008EF0DF0F3EF0CF098
:101A10000AB00DEF0DF00FEF0DF010EF0DF00D9E71
:101A2000D8900A320AC005F0066A076A086A05C03B
:101A300008F0076A066A056A05500B1206500C1278
:101A400007500D1208500E120950D8B42AEF0DF0AD
:101A50002CEF0DF034EF0DF004BE33EF0DF031EF4D
:101A60000DF034EF0DF00E8E0BC001F00CC002F043
:101A70000DC003F00EC004F01200000E436E000E05
:101A8000426E5EEF0DF033C01AF034C01BF035C06B
:101A90001CF036C01DF0000E1E6E000E1F6E200ED4
:101AA000206E410E216E7EEC08F01AC033F01BC090
:101AB00034F01CC035F01DC036F0432A33C00FF09F
:101AC00034C010F035C011F036C012F0000E136EA5
:101AD000000E146E800E156E3F0E166E84EC0EF026
:101AE000D8B075EF0DF077EF0DF043EF0DF04350E8
:101AF000D8A47DEF0DF07FEF0DF0E8EF0DF0300E84
:101B000024EC10F02E0E24EC10F0E8EF0DF0422A39
:101B100033C001F034C002F035C003F036C004F029
:101B2000000E056E000E066E200E076E410E086E4A
:101B300069EC06F001C033F002C034F003C035F0A8
:101B400004C036F033C001F034C002F035C003F0F9
:101B500036C004F05AEC0BF001C03EF002C03FF07A
:101B600003C040F004C041F033C011F034C012F0A3
:101B700035C013F036C014F03EC015F03FC016F06B
:101B800040C017F041C018F0B0EC0FF011C033F0B6
:101B900012C034F013C035F014C036F03EC001F06E
:101BA0003FC002F040C003F041C004F001EC0EF071
:101BB0000150300F24EC10F043504218D8A4E3EF4A
:101BC0000DF0E5EF0DF0E8EF0DF02E0E24EC10F027
:101BD00043503724396E000E38203A6E42503B6E27
:101BE0003C6A39503B5C3C50800A3D6E3A50800A5A
:101BF0003D58D8A0FEEF0DF000EF0EF087EF0DF08E
:101C00001200033404340A6E0A50D8A40AEF0EF00E
:101C10000CEF0EF016EF0EF0000E016E000E026ECD
:101C2000000E036E000E046E83EF0EF001C005F08F
:101C300002C006F003C007F004C008F0200E26EF33
:101C40000EF0D8900832073206320532E82E21EF26
:101C50000EF00550096E038EFF0E0116FF0E0216E0
:101C6000FF0E0316000E0416960E0A5E0ABE3DEF26
:101C70000EF03BEF0EF053EF0EF00A50800A970F74
:101C8000D8B045EF0EF047EF0EF049EF0EF00CEF35
:101C90000EF0D89004320332023201320A3E49EF8C
:101CA0000EF06BEF0EF01F0E0A6459EF0EF05BEFB3
:101CB0000EF063EF0EF00CEF0EF0D8900136023606
:101CC000033604360A060A50D8A469EF0EF06BEF0B
:101CD0000EF05DEF0EF00950D8B471EF0EF073EF17
:101CE0000EF07BEF0EF0041E031E021E016C000EB0
:101CF00002220322042201C001F002C002F003C04C
:101D000003F004C004F01200000E0F14176E000E52
:101D10001014186E800E1114196E7F0E12141A6EA4
:101D20001750181019101A10D8A499EF0EF09BEF45
:101D30000EF0A3EF0EF0000E0F6E000E106E000EF0
:101D4000116E000E126E000E1314176E000E141496
:101D5000186E800E1514196E7F0E16141A6E175019
:101D6000181019101A10D8A4B8EF0EF0BAEF0EF030
:101D7000C2EF0EF0000E136E000E146E000E156E04
:101D8000000E166E12AEC7EF0EF0C9EF0EF0D2EFD6
:101D90000EF00F6C101ED8B0102A111ED8B0112AE8
:101DA000800E125616AED7EF0EF0D9EF0EF0E2EF1E
:101DB0000EF0136C141ED8B0142A151ED8B0152AB4
:101DC000800E1656000E0F1A000E101A000E111A71
:101DD000800E121A000E131A000E141A000E151A95
:101DE000800E161A13500F5C1450105815501158CD
:101DF00016501258D8B0FFEF0EF001EF0FF004EFBD
:101E00000FF0D89005EF0FF0D880120005C001F058
:101E100006C002F0D3EC0FF00150096E000E0A6EFE
:101E20002AEF0FF084820A500524076E000E062068
:101E3000086E07C0F6FF08C0F7FF0800F5CF83FF64
:101E4000100EE82EFED700D08492100EE82EFED79A
:101E500000D00A2A09500A5CD8A031EF0FF033EF06
:101E60000FF012EF0FF012006E0EF66E200EF76EEE
:101E7000000EF86E00EE60F010EE07F00900F5CFEE
:101E8000EEFFE550E150FAE1750EF66E200EF76EAA
:101E9000000EF86E00EE56F010EE04F00900F5CFDB
:101EA000EEFFE550E150FAE1556A546A536A526A0E
:101EB0005A905A92000EF86E080EF76E00014BEF22
:101EC0000AF0849420EE60F010EE01F0060EDBCFF5
:101ED000E3FFE806FCE2000E086E8482010E08248F
:101EE000D96EDA6A000EDA22DF50836E100EE82E09
:101EF000FED700D08492100EE82EFED700D0082A1C
:101F0000060E086486EF0FF088EF0FF06DEF0FF00C
:101F1000848412000600F2A890EF0FF092EF0FF009
:101F20009DEF0FF0F2A297EF0FF099EF0FF09DEFFA
:101F30000FF05806D8A05906F292F0A6A2EF0FF0C3
:101F4000A4EF0FF0AEEF0FF0F0A0A9EF0FF0ABEFA2
:101F50000FF0AEEF0FF0584A592AF0905A92110044
:101F6000000E151A000E161A000E171A800E181AF7
:101F700011C001F012C002F013C003F014C004F04D
:101F800015C005F016C006F017C007F018C008F01D
:101F900009EC04F001C011F002C012F003C013F00C
:101FA00004C014F0120001C003F002C004F0DBEF23
:101FB0000FF0014A022A01C0F6FF02C0F7FF080035
:101FC000F5500009D8A4E7EF0FF0E9EF0FF0D9EFD3
:101FD0000FF00350015C016E04500258026E1200B3
:101FE00044C033F045C034F046C035F047C036F049
:101FF00048C037F049C038F03DEC0DF0DF0E24EC5E
:1020000010F0430E24EC10F01200016E84948482D0
:1020100001C083FF100EE82EFED700D08492100E70
:10202000E82EFED700D08484120084948482010EAE
:10203000836E100EE82EFED700D08492100EE82E8C
:10204000FED700D084841200016E848201C083FF19
:10205000100EE82EFED700D08492100EE82EFED788
:1020600000D01200000E956E000E966E12003030F9
:0920700030380C060105003200B5
:020000040020DA
:08000000FFFFFFFFFFFFFFFF00
:020000040030CA
:0E000000000C1F1FFF8185FF0FC00FE00F4097
:00000001FF
