:020000040000FA
:0400000007EF00F016
:10000800058248ED00F080EF00F0000E956ED08E6E
:10001800F28EF29CF288F292F18CF08CF086F090DD
:10002800F19A2CEF00F0000E836E2CEF00F0832A7B
:10003800030E046E8A0E036E560EE82EFED7032EAC
:10004800FCD7042EFAD72CEF00F083061CEF00F043
:1000580001C003F002C004F00450000AD8B437EF1E
:1000680000F02CEF00F00350000AD8B417EF00F0AE
:10007800010AD8B41BEF00F0030AD8B429EF00F046
:100088002CEF00F007EF00F00600F2A84EEF00F0AA
:1000980050EF00F06EEF00F0F2A255EF00F057EFCE
:1000A80000F06EEF00F002BE65EF00F0025007E1CD
:1000B800020E015CD8B063EF00F065EF00F069EF65
:1000C80000F0014A022A6DEF00F0000E026E000EE9
:1000D800016EF292F0A673EF00F075EF00F07EEF7C
:1000E80000F0F0A07AEF00F07CEF00F07EEF00F077
:1000F800838EF09005921100026A016A05900592BC
:0A010800000EF86E000109EF00F090
:020000040020DA
:08000000FFFFFFFFFFFFFFFF00
:020000040030CA
:0E000000000C191EFF8080FF0FC00FE00F40A4
:00000001FF
