:020000040000FA
:0400000064EF09F0B0
:100800000050726F6772616D204F75740D0A004C55
:10081000454430204F46460D0A004C454431204F98
:1008200046460D0A004C454432204F46460D0A000C
:100830004C454433204F46460D0A004C4544342075
:100840004F46460D0A004C454435204F46460D0A9A
:10085000004C454436204F46460D0A004C4544376F
:10086000204F46460D0A00496E76616C69646F0D33
:100870000A0046696E697368210D0A004C454420E0
:100880004F46460D0A004C454430204F4E0D0A009D
:100890004C454431204F4E0D0A004C454432204F08
:1008A0004E0D0A004C454433204F4E0D0A004C4576
:1008B0004434204F4E0D0A004C454435204F4E0D18
:1008C0000A004C454436204F4E0D0A004C45443733
:1008D000204F4E0D0A004E756D20706F72746100CE
:1008E0005374617274210D0A004F4646004F7574AF
:0508F000004F4E000066
:1008F600000E936E000E816E6DEC09F0800E0F6E89
:10090600250E106E000E116E000E126EEEEC06F045
:10091600E00E016E080E026E73EC08F01F0E016EFB
:10092600000E026EBBEC08F01F0E016E000E026E8A
:1009360073EC08F01F0E016E000E026EF10E036ED0
:10094600080E046E000E066E020E056E08EC08F028
:1009560001500210D8A4B2EF04F0B4EF04F04DEF4A
:1009660005F0D60E016E080E026E73EC08F01F0E2F
:10097600016E000E026EBBEC08F01F0E016E000E3B
:10098600026E73EC08F01F0E086E000E096E29EC5D
:1009960006F00850296E20EF05F08180860E016E64
:1009A600080E026E73EC08F04DEF05F08182900E92
:1009B600016E080E026E73EC08F04DEF05F08184AF
:1009C6009A0E016E080E026E73EC08F04DEF05F0FC
:1009D6008186A40E016E080E026E73EC08F04DEFD0
:1009E60005F08188AE0E016E080E026E73EC08F0FB
:1009F6004DEF05F0818AB80E016E080E026E73EC9B
:100A060008F04DEF05F0818CC20E016E080E026EE5
:100A160073EC08F04DEF05F0818ECC0E016E080EDA
:100A2600026E73EC08F04DEF05F0670E016E080ECE
:100A3600026E73EC08F04DEF05F029501D6E1E6A2C
:100A46001E50000AD8B42AEF05F018EF05F01D5025
:100A5600000AD8B4D0EF04F0010AD8B4D9EF04F0F4
:100A6600030AD8B4E2EF04F0010AD8B4EBEF04F0BD
:100A7600070AD8B4F4EF04F0010AD8B4FDEF04F085
:100A8600030AD8B406EF05F0010AD8B40FEF05F053
:100A960018EF05F01F0E016E000E026EE90E036ED2
:100AA600080E046E000E066E030E056E08EC08F0C6
:100AB60001500210D8A462EF05F064EF05F003EFD1
:100AC60006F07C0E016E080E026E73EC08F0D60E70
:100AD600016E080E026E73EC08F01F0E016E000E1A
:100AE600026EBBEC08F01F0E016E000E026E73EC78
:100AF60008F01F0E086E000E096E29EC06F008506D
:100B0600296ED6EF05F081900F0E016E080E026E6B
:100B160073EC08F003EF06F081921A0E016E080ED0
:100B2600026E73EC08F003EF06F08194250E016E59
:100B3600080E026E73EC08F003EF06F08196300E95
:100B4600016E080E026E73EC08F003EF06F0819852
:100B56003B0E016E080E026E73EC08F003EF06F012
:100B6600819A460E016E080E026E73EC08F003EFD2
:100B760006F0819C510E016E080E026E73EC08F0B1
:100B860003EF06F0819E5C0E016E080E026E73EC9A
:100B960008F003EF06F0670E016E080E026E73ECA6
:100BA60008F003EF06F029501D6E1E6A1E50000A5B
:100BB600D8B4E0EF05F0CEEF05F01D50000AD8B42A
:100BC60086EF05F0010AD8B48FEF05F0030AD8B412
:100BD60098EF05F0010AD8B4A1EF05F0070AD8B4DA
:100BE600AAEF05F0010AD8B4B3EF05F0030AD8B4AA
:100BF600BCEF05F0010AD8B4C5EF05F0CEEF05F05D
:100C06001F0E016E000E026EED0E036E080E046ED0
:100C1600000E066E030E056E08EC08F00150021079
:100C2600D8A418EF06F01AEF06F091EF04F0010EC3
:100C3600016E080E026E73EC08F08192720E016E60
:100C4600080E026E73EC08F000EF00F0000E166E50
:100C5600000E156E000E0F6E000E0E6E35EF06F0CE
:100C6600084A092A010E146E08C0D9FF09C0DAFF26
:100C7600200EDE18D8B442EF06F044EF06F060EF1F
:100C860006F0F70E0A6EFF0E0B6E08C0D9FF09C0FC
:100C9600DAFFDF500C6E0D6A0A500C260B500D223F
:100CA6000D5009E1050E0C5CD8A05CEF06F05EEF76
:100CB60006F060EF06F0000E146E14C010F0116A14
:100CC60010501110D8A46AEF06F06CEF06F033EF5F
:100CD60006F076EF06F0000E0F6E010E0E6E084A55
:100CE600092AABEF06F008C0D9FF09C0DAFFDF50CA
:100CF6000A6E0B6A0B50000AD8B484EF06F0ABEF0D
:100D060006F00A502B0AD8B472EF06F0060AD8B4D9
:100D16006EEF06F0ABEF06F015C001F016C002F05C
:100D2600000E046E0A0E036E47EC09F008C0D9FFE8
:100D360009C0DAFFDF500A6E0A50015E000E025A41
:100D4600300E0124156E000E0220166E72EF06F0AC
:100D5600D00E0A6EFF0E0B6E08C0D9FF09C0DAFF6F
:100D6600DF500C6E0D6A0A500C260B500D220D50EA
:100D76000AE10A0E0C5CD8A0C3EF06F0C6EF06F037
:100D8600010EC7EF06F0000E126E136A1250131012
:100D9600D8A4D0EF06F0D2EF06F08FEF06F00E5093
:100DA6000F10D8A4D9EF06F0DBEF06F0E9EF06F056
:100DB60015C00AF016C00BF00A1E0B1E0A4A0B2AB3
:100DC6000AC008F00BC009F0EDEF06F015C008F0F8
:100DD60016C009F012000FC013F010C014F011C0B5
:100DE60015F012C016F0060ED890133614361536C6
:100DF6001636E82EF7EF06F013500008016E090EBE
:100E06001454026E3D0E1554036E000E1654046EF5
:100E16000FC017F010C018F011C019F012C01AF068
:100E2600060ED8901736183619361A36E82E14EFED
:100E360007F017C005F018C006F019C007F01AC071
:100E460008F082EC07F001C01BF002C01CF01C0485
:100E5600D8A030EF07F032EF07F06FEF07F00FC0C2
:100E660013F010C014F011C015F012C016F0040EE5
:100E7600D8901336143615361636E82E3BEF07F0A3
:100E860013500008016E090E1454026E3D0E1554DF
:100E9600036E000E1654046E0FC017F010C018F043
:100EA60011C019F012C01AF0040ED8901736183671
:100EB60019361A36E82E58EF07F017C005F018C095
:100EC60006F019C007F01AC008F082EC07F001C05E
:100ED6001BF002C01CF0AC841C04D8B075EF07F000
:100EE60077EF07F081EF07F01BC0AFFFAC98AB8E32
:100EF600948E949CAB88AC8A9D889D8A1200000EC5
:100F06000A6E08BE8BEF07F089EF07F095EF07F042
:100F1600081E071E061E056C000E06220722082262
:100F2600010E0A6E04BE9CEF07F09AEF07F0A6EFDB
:100F360007F0041E031E021E016C000E022203228D
:100F46000422010E0A1A000E0B6E000E0C6E000E25
:100F56000D6E000E0E6E0550061007100810D8B460
:100F6600B7EF07F0B9EF07F0EFEF07F0010E096EE4
:100F7600C3EF07F0D8900536063607360836092A35
:100F860008AEC8EF07F0CAEF07F0BDEF07F0D8903C
:100F96000B360C360D360E360550015C06500258DF
:100FA6000750035808500458D8A0DCEF07F0DEEFCE
:100FB60007F0E7EF07F00550015E0650025A0750AA
:100FC600035A0850045A0B80D8900832073206326A
:100FD6000532092ECAEF07F00A50D8B4F5EF07F02C
:100FE600F7EF07F0FFEF07F00E1E0D1E0C1E0B6C41
:100FF600000E0C220D220E220BC001F00CC002F0D6
:101006000DC003F00EC004F0120001C008F002C0CB
:1010160009F003C00AF004C00BF00506D8A00606C6
:10102600052806E10628D8A41BEF08F01DEF08F0F6
:101036002AEF08F0000E026E000E016E72EF08F045
:10104600084A092A0A4A0B2A0506D8A0060608C035
:10105600D9FF09C0DAFFDF50D8B434EF08F036EF15
:1010660008F061EF08F00AC0F6FF0BC0F7FF0800B2
:10107600F5500009D8B442EF08F044EF08F061EFEC
:1010860008F005500610D8B44BEF08F04DEF08F005
:1010960061EF08F008C0D9FF09C0DAFFDF50076E1C
:1010A6000AC0F6FF0BC0F7FF0800F5500718D8B4C2
:1010B6005FEF08F061EF08F023EF08F008C0D9FFF2
:1010C60009C0DAFFDF50076E0AC0F6FF0BC0F7FF54
:1010D6000800F550075C016E026AD8A002061200ED
:1010E600000E066E000E056E9CEF08F005500124FA
:1010F600036E06500220046E03C0F6FF04C0F7FF1D
:10110600F86A070EF76403D00800F55005D0F6CF4D
:10111600E9FFF7CFEAFFEF50AD6E5AEC09F0000990
:10112600D8A498EF08F09AEF08F090EF08F0054A77
:10113600062A05500124036E06500220046E03C0E1
:10114600F6FF04C0F7FFF86A070EF76403D008003D
:10115600F55005D0F6CFE9FFF7CFEAFFEF500009CB
:10116600D8A4B8EF08F0BAEF08F079EF08F012004B
:10117600000E066E000E056E69EC09F00009D8B483
:10118600C7EF08F0C9EF08F0BFEF08F005500124DB
:10119600D96E06500220DA6EAECFDFFF055001246D
:1011A600D96E06500220DA6E0D0EDE18D8B4DEEFC8
:1011B60008F0E0EF08F0F3EF08F005500124D96ECF
:1011C60006500220DA6E0A0EDE18D8B4EDEF08F0EB
:1011D600EFEF08F0F3EF08F0054A062ABFEF08F034
:1011E60005500124036E06500220046E010E0324EE
:1011F600D96E000E0420DA6E000EDF6E1200010EAC
:10120600076E200E01180210D8B40CEF09F00EEF8D
:1012160009F027EF09F0F70E036EFF0E046E01C00A
:1012260005F002C006F003500526045006220650BB
:1012360009E1050E055CD8A023EF09F025EF09F0BA
:1012460027EF09F0000E076E07C001F0026A1200D0
:10125600D00E036EFF0E046E01C005F002C006F04C
:10126600035005260450062206500AE10A0E055CC4
:10127600D8A040EF09F043EF09F0010E44EF09F062
:10128600000E016E026A120001500302F3CF05F050
:10129600F4CF06F001500402F35006260250030272
:1012A600F350062605C001F006C002F01200ACA2FB
:1012B6005FEF09F062EF09F0010E63EF09F0000E2F
:1012C6001200000EF86E00017BEF04F0000E9EBACD
:0812D600010E1200AB9E120094
:020000040020DA
:08000000FFFFFFFFFFFFFFFF00
:020000040030CA
:0E000000000C191EFF8180FF0FC00FE00F40A3
:00000001FF
