:020000040000FA
:0400000007EF00F016
:100008005C82DFED04F067EF05F01250800B1F6E85
:1000180012501224266E11AE14EF00F016EF00F005
:1000280017EF00F026802650D8B41DEF00F01FEF20
:1000380000F034EF00F02628D8A425EF00F027EFD1
:1000480000F02FEF00F0000E0F6E000E106E000E85
:10005800116E000E126E118E000E126E3CEF00F043
:10006800000E0F6E000E106E000E116E000E126E56
:100078001650800B1F1A16501624276E15AE47EF20
:1000880000F049EF00F04AEF00F027802750D8B47D
:1000980050EF00F052EF00F067EF00F02728D8A4E7
:1000A80058EF00F05AEF00F062EF00F0000E136E08
:1000B800000E146E000E156E000E166E158E000ED4
:1000C800166E6FEF00F0000E136E000E146E000E29
:1000D800156E000E166E1350141015101610D8A4B5
:1000E80078EF00F07AEF00F092EF00F0000E0F6E5C
:1000F800000E106E000E116E000E126E800E1112A0
:100108007F0E12121F5012120FC00FF010C010F005
:1001180011C011F012C012F0D5EF01F02650D8A48A
:1001280098EF00F09AEF00F0A4EF00F0000E0F6EC9
:10013800000E106E000E116E000E126ED5EF01F05B
:10014800275026C017F0186A175E000E185A7F0E3F
:100158001724206E000E1820216E0FC01BF010C04F
:100168001CF011C01DF012C01EF0000E0F6E000E24
:10017800106E000E116E000E126E000E226E000E32
:10018800236E000E246E000E256E000E276E05EFFE
:1001980001F02750D8B4D3EF00F0D5EF00F0ECEF22
:1001A80000F0D8901B361C361D361E36D8900F36F8
:1001B80010361136123625AEE4EF00F0E6EF00F007
:1001C800E7EF00F00F80D890223623362436253604
:1001D80013501B5C14501C5815501D5816501E58AF
:1001E800D8A0F9EF00F0FBEF00F004EF01F0258C48
:1001F80013501B5E14501C5A15501D5A16501E5A87
:10020800272A190E27640BEF01F00DEF01F0CDEF4F
:1002180000F01B501C101D101E10D8B416EF01F072
:1002280018EF01F030EF01F0228030EF01F0D890A4
:100238000F3610361136123625AE25EF01F027EFAE
:1002480001F028EF01F00F80D890223623362436AB
:1002580025362006D8A0210611AE35EF01F037EF7C
:1002680001F01BEF01F0000E276E25AE3EEF01F006
:1002780040EF01F064EF01F0FF0E2214176EFF0E3D
:100288002314186EFF0E2414196E7F0E25141A6E8F
:100298001750181019101A10D8B455EF01F057EF6D
:1002A80001F05BEF01F0010E276E64EF01F00FA083
:1002B80060EF01F062EF01F064EF01F057EF01F039
:1002C8002750D8B46AEF01F06CEF01F090EF01F01D
:1002D800010E0F26000E10221122122212A077EF13
:1002E80001F079EF01F090EF01F00FC017F010C0A6
:1002F80018F011C019F012C01AF01A341A32193253
:100308001832173217C00FF018C010F019C011F0CA
:100318001AC012F0204A212A21BE9BEF01F0215079
:1003280008E12028D8A09BEF01F09DEF01F0A8EF8D
:1003380001F0000E216E2068000E0F6E000E106E88
:10034800000E116E000E126E21BEB5EF01F02150A5
:1003580006E12004D8B0B3EF01F0B5EF01F0C3EF28
:1003680001F0000E216E000E206E000E0F6E000EC2
:10037800106E000E116E000E126E000E1F6E20C061
:1003880026F026A0CAEF01F0CCEF01F0CFEF01F084
:10039800118ED0EF01F0119ED8902630126E86EFA4
:1003A80000F0120054C038F055C039F056C03AF089
:1003B80057C03BF028C038F029C039F02AC03AF0BD
:1003C8002BC03BF0810E2C6EFF0E2D6E38C02EF028
:1003D80039C02FF03AC030F03BC031F0180EFAEFB8
:1003E80001F0D890313230322F322E32E82EF5EF2C
:1003F80001F02E502C24366E000E2D20376E37BE9D
:100408000FEF02F0375009E1170E365CD8A00FEF56
:1004180002F011EF02F01BEF02F028C028F029C00B
:1004280029F02AC02AF02BC02BF0DEEF02F037BEED
:1004380020EF02F022EF02F092EF02F036C02CF02B
:10044800FF0E2D6EFF0E2E6E7F0E2F6E000E306E7D
:100458002C6631EF02F039EF02F0303430322F32AF
:100468002E322D322C2E2CEF02F02DC032F02EC061
:1004780033F02FC034F030C035F0325038142C6EC1
:10048800335039142D6E34503A142E6E35503B14B7
:100498002F6E2C502D102E102F10D8A456EF02F0CE
:1004A80058EF02F05AEF02F011EF02F038C02CF0CA
:1004B80039C02DF03AC02EF03BC02FF0200E6AEF65
:1004C80002F0D8902F322E322D322C32E82E65EFE2
:1004D80002F02C502D102E102F10D8B476EF02F009
:1004E80078EF02F080EF02F032503826335039228C
:1004F80034503A2235503B22321C2C6E331C2D6E60
:10050800341C2E6E351C2F6E2C5038162D50391673
:100518002E503A162F503B16D6EF02F038C02CF06A
:1005280039C02DF03AC02EF03BC02FF0200EA2EFBC
:1005380002F0D8902F322E322D322C32E82E9DEF39
:1005480002F02C502D102E102F10D8A4AEEF02F070
:10055800B0EF02F0BAEF02F0000E386E000E396EFE
:10056800000E3A6E000E3B6ED6EF02F0D89038348B
:100578002C6E39342D6E3A342E6E3B342F6E2C503F
:100588002D102E102F10D8B4CCEF02F0CEEF02F0C1
:10059800D6EF02F0000E386E000E396E800E3A6EFD
:1005A800BF0E3B6E38C028F039C029F03AC02AF097
:1005B8003BC02BF01200096E0950D8B4E6EF02F0E8
:1005C800E8EF02F00AEF03F004BEEFEF02F0EDEF00
:1005D80002F00AEF03F001C005F002C006F003C004
:1005E80007F004C008F0051E061E071E081E052A8F
:1005F800000E06220722082205C00BF006C00CF0E8
:1006080007C00DF008C00EF012EF03F001C00BF0A8
:1006180002C00CF003C00DF004C00EF0015002102F
:1006280003100410D8A41BEF03F01DEF03F027EF0D
:1006380003F0000E016E000E026E000E036E000E37
:10064800046EB8EF03F0960E0A6E31EF03F00A2A33
:10065800D8900E320D320C320B32000E0B14056E90
:10066800000E0C14066E000E0D14076EFE0E0E140E
:10067800086E0550061007100810D8A446EF03F0BE
:1006880048EF03F02BEF03F056EF03F00A2A010EB0
:100698000B26000E0C220D220E22D8900E320D329F
:1006A8000C320B32000E0B14056E000E0C14066E85
:1006B800000E0D14076EFF0E0E14086E055006107E
:1006C80007100810D8A46BEF03F06DEF03F04AEFA2
:1006D80003F075EF03F00A06D8900B360C360D368A
:1006E8000E360DBE7AEF03F07CEF03F084EF03F0D3
:1006F800020E0A6082EF03F084EF03F06FEF03F05D
:100708000AB089EF03F08BEF03F08CEF03F00D9E36
:10071800D8900A320AC005F0066A076A086A05C056
:1007280008F0076A066A056A05500B1206500C1293
:1007380007500D1208500E120950D8B4A6EF03F056
:10074800A8EF03F0B0EF03F004BEAFEF03F0ADEF96
:1007580003F0B0EF03F00E8E0BC001F00CC002F0F6
:100768000DC003F00EC004F01200000E136E000E50
:10077800146E200E156E410E166E46C001F047C06D
:1007880002F0000E02BEFF0E036E046E010EDFECD7
:1007980002F001C00FF002C010F003C011F004C055
:1007A80012F009EC00F00FC028F010C029F011C0B9
:1007B8002AF012C02BF0D6EC01F028C03CF029C07A
:1007C8003DF02AC03EF02BC03FF05CEC04F03CC08A
:1007D8004EF03DC04FF04EC001F04FC002F0FF0E8A
:1007E800046EF60E036E82EC05F0465001244A6E44
:1007F800475002204B6E000E136E000E146E200E32
:10080800156E410E166E48C001F049C002F0000E88
:1008180002BEFF0E036E046E010EDFEC02F001C093
:100828000FF002C010F003C011F004C012F009EC80
:1008380000F00FC028F010C029F011C02AF012C033
:100848002BF0D6EC01F028C03CF029C03DF02AC0BE
:100858003EF02BC03FF05CEC04F03CC050F03DC0D3
:1008680051F050C001F051C002F0FF0E046EF60EB8
:10087800036E82EC05F0485001244C6E495002206A
:100888004D6E800E95EC05F04E50300FA5EC05F03E
:100898004A50300FA5EC05F03A0EA5EC05F0505083
:1008A800300FA5EC05F04C50300FA5EC05F0120008
:1008B8003E343F34456E4550D8A465EF04F067EFE9
:1008C80004F071EF04F0000E3C6E000E3D6E000E59
:1008D8003E6E000E3F6EDEEF04F03CC040F03DC0BF
:1008E80041F03EC042F03FC043F0200E81EF04F0DB
:1008F800D8904332423241324032E82E7CEF04F045
:100908004050446E3E8EFF0E3C16FF0E3D16FF0E05
:100918003E16000E3F16960E455E45BE98EF04F053
:1009280096EF04F0AEEF04F04550800A970FD8B068
:10093800A0EF04F0A2EF04F0A4EF04F067EF04F0D6
:10094800D8903F323E323D323C32453EA4EF04F06F
:10095800C6EF04F01F0E4564B4EF04F0B6EF04F0E0
:10096800BEEF04F067EF04F0D8903C363D363E36D3
:100978003F3645064550D8A4C4EF04F0C6EF04F04E
:10098800B8EF04F04450D8B4CCEF04F0CEEF04F044
:10099800D6EF04F03F1E3E1E3D1E3C6C000E3D226D
:1009A8003E223F223CC03CF03DC03DF03EC03EF000
:1009B8003FC03FF012000600F3CF52F0F4CF53F0DF
:1009C800F2A4E9EF04F0EBEF04F011EF05F0F2AA5E
:1009D800F0EF04F0F2EF04F011EF05F0812A584A25
:1009E800592A3B0E8164FBEF04F0FDEF04F006EF9B
:1009F80005F0832A5A4A5B2A000E816E000E596E52
:100A0800000E586E5AC046F05BC047F058C048F018
:100A180059C049F0B9EC03F0F29453C0F4FF52C046
:100A2800F3FF5C921100849420EE68F010EE60F001
:100A3800060EDBCFE3FFE806FCE2000E0001676F5D
:100A48008482600E6725D96EDA6A000EDA22DF50DA
:100A5800836E100EE82EFED700D08492100EE82E7A
:100A6800FED700D00001672B060E67653EEF05F044
:100A780040EF05F024EF05F084841200000E596E53
:100A8800000E586E58C05AF059C05BF0B3EC05F030
:100A980017EC05F0D08EF28EF29CF294F28AF18473
:100AA800830ED56E000E936E000E816E000E956E4D
:100AB800000E836E0B0ED76EDC0ED66E040062EF4E
:100AC80005F007EF00F0700EF66E0B0EF76E000ED5
:100AD800F86E00EE68F010EE07F00900F5CFEEFFB3
:100AE800E550E150FAE100EE54F0080EEE6AE8062F
:100AF800FDE15C905C92000142EF05F001500302B9
:100B0800F3CF05F0F4CF06F001500402F3500626A7
:100B180002500302F350062605C001F006C002F099
:100B28001200016E8494848201C083FF100EE82EA7
:100B3800FED700D08492100EE82EFED700D0848411
:100B48001200016E848201C083FF100EE82EFED7CA
:100B580000D08492100EE82EFED700D01200000EAE
:0F0B6800956E000E966E1200303030380C06017C
:020000040020DA
:08000000FFFFFFFFFFFFFFFF00
:020000040030CA
:0E000000000C191EFF8080FF0FC00FE00F40A4
:00000001FF
