:020000040000FA
:0400000007EF00F016
:10000800018209ED00F040EF00F00600F2A40FEFC6
:1000180000F011EF00F025EF00F0F2AA16EF00F063
:1000280018EF00F025EF00F0812A3B0E81641FEFE6
:1000380000F021EF00F024EF00F0832A000E816E1B
:10004800F29401921100D08EF28EF29CF294F28A10
:10005800F184830ED56E000E936E000E816E000E35
:10006800956E000E836E0B0ED76EDC0ED66E0400F6
:100078003BEF00F007EF00F001900192000127EF3D
:0200880000F086
:020000040020DA
:08000000FFFFFFFFFFFFFFFF00
:020000040030CA
:0E00000000051F11FF8185FF0FC00FE00F40AC
:00000001FF
