:020000040000FA
:04000000E3EF04F036
:0908000000544553544521000049
:10080A00076E07C00CF0000E29EC05F00A0E066E02
:10081A00BC0EE82EFED7062EFCD700D0030E1CEC29
:10082A0005F0FA0E00D0E82EFDD7030E1CEC05F0F9
:10083A00FA0E00D0E82EFDD7030E1CEC05F0FA0ED6
:10084A0000D0E82EFDD7020E1CEC05F0FA0E00D0FF
:10085A00E82EFDD7280E1CEC05F0110E066E3A0E96
:10086A00E82EFED7062EFCD700D00C0E1CEC05F0A5
:10087A00110E066E3A0EE82EFED7062EFCD700D0D1
:10088A00010E1CEC05F0110E066E3A0EE82EFED78C
:10089A00062EFCD700D0060E1CEC05F0110E066ED3
:1008AA003A0EE82EFED7062EFCD700D01200096EAB
:1008BA0077EF04F00650BF0F1CEC05F090EF04F040
:1008CA000650930F1CEC05F090EF04F00650D30F7E
:1008DA001CEC05F090EF04F006507F0F1CEC05F0BD
:1008EA0090EF04F00950076E086A0850000AD8B45D
:1008FA0081EF04F071EF04F00750020AD8B45FEFF9
:10090A0004F0010AD8B465EF04F0070AD8B46BEF13
:10091A0004F071EF04F01200000E0B6E000E0A6E66
:10092A00A7EF04F00A500624086E0B500720096E40
:10093A0008C0F6FF09C0F7FF0800F5500FEC05F0F4
:10094A000A4A0B2A0A500624086E0B500720096E21
:10095A0008C0F6FF09C0F7FF0800F5500009D8A43F
:10096A00B9EF04F0BBEF04F097EF04F0120036EC95
:10097A0005F04E0E05EC04F0010E066E010E5CEC5D
:10098A0004F0010E066E080E076E91EC04F0CCEF2F
:10099A0004F000EF00F0C7B4D5EF04F0D7EF04F08D
:1009AA00D0EF04F0C5CF01F01F0E0116D8A4E0EF76
:1009BA0004F0E2EF04F0D0EF04F01200920EF66EAB
:1009CA000A0EF76E000EF86E0900F5CF0EF00D6AEA
:1009DA00000EF86E0001BCEF04F0046E0D50041214
:1009EA000450040929EC05F00450FB0B29EC05F02E
:1009FA00040EE82EFED71200026ED0EC04F002C0FC
:100A0A00C9FF9EA60BEF05F00DEF05F006EF05F006
:100A1A009E961200056E010E0D6E0550F00BF2EC5B
:100A2A0004F00538F00BF00BF2EC04F01200056E3E
:100A3A00000E0D6E0550F00BF2EC04F00538F00BC9
:100A4A00F00BF2EC04F01200036E45EC05F00C50CA
:100A5A0001EC05F003500E1001EC05F041EC05F035
:100A6A001200280EC66E000EC56E000EC76E010E6D
:100A7A00C86E938293801200D0EC04F0C5841200F1
:090A8A00D0EC04F0C58012000854
:020000040020DA
:08000000FFFFFFFFFFFFFFFF00
:020000040030CA
:0E000000000B1F1EFF8185FF0FC00FE00F4099
:00000001FF
