:020000040000FA
:0400000007EF00F016
:100008005D82DAED00F0DCEF02F00CC0D9FF0DC024
:10001800DAFFDECF10F0DECF11F0DECF12F010C025
:10002800F6FF11C0F7FF12C0F8FF0800F550250AC7
:10003800D8A421EF00F023EF00F0B5EF00F00CC0DA
:10004800D9FF0DC0DAFFDE2A000EDE22DE22000E06
:10005800586E000E576E57C05BF058C05CF0596878
:100068005A680CC0D9FF0DC0DAFFDECF10F0DECF22
:1000780011F0DECF12F010C0F6FF11C0F7FF12C06A
:10008800F8FF0800F5506E0AD8A44DEF00F04FEFC6
:1000980000F079EF00F00CC0D9FF0DC0DAFFDE2ABE
:1000A800000EDE22DE220EC0D9FF0FC0DAFFDFCF3E
:1000B80010F0020EDE26DFCF11F0000EDD2210C098
:1000C800D9FF11C0DAFFDECF13F0DDCF14F013C073
:1000D800D9FF14C0DAFF55C0DEFF56C0DDFF000EA1
:1000E8000B6E000E0A6ED9EF00F00CC0D9FF0DC0E0
:1000F800DAFFDECF10F0DECF11F0DECF12F010C045
:10010800F6FF11C0F7FF12C0F8FF0800F550250AE6
:10011800D8A491EF00F093EF00F0ABEF00F00CC023
:10012800D9FF0DC0DAFFDE2A000EDE22DE22000E25
:10013800026E250E016E0AC003F00BC004F0FAEC43
:1001480001F0000E0B6E010E0A6ED9EF00F00CC024
:10015800D9FF0DC0DAFFDE2A000EDE22DE2273EFA1
:1001680000F00CC0D9FF0DC0DAFFDECF10F0DECFF3
:1001780011F0DECF12F010C0F6FF11C0F7FF12C069
:10018800F8FF0800F550016E026A0AC003F00BC0C0
:1001980004F0FAEC01F00CC0D9FF0DC0DAFFDE2A3A
:1001A800000EDE22DE22A5EF00F012000600E1CFED
:1001B80029F0E2CF2AF0D9CF2BF0DACF2CF0F6CF06
:1001C8002DF0F7CF2EF0F8CF2FF0F5CF30F0F2A4C6
:1001D800F0EF00F0F2EF00F02EEF01F0F2AAF7EFE7
:1001E80000F0F9EF00F02EEF01F0812A3B0E816458
:1001F80000EF01F002EF01F005EF01F0832A000E95
:10020800816E3BEC03F0810E2BEC03F08350D8A4F5
:1002180010EF01F012EF01F020EF01F08350266E8D
:10022800276A286A26C01FF027C020F028C021F0BE
:1002380016EC03F025EF01F083CF09F00A6A45ECCC
:1002480002F03A0E4AEC03F081CF09F00A6A45EC55
:1002580002F0F29430C0F5FF2FC0F8FF2EC0F7FF70
:100268002DC0F6FF2CC0DAFF2BC0D9FF2AC0E2FF51
:1002780029C0E1FF5D921100000E066E04BE49EF31
:1002880001F047EF01F04FEF01F0036C041ED8B006
:10029800042A010E066E02BE56EF01F054EF01F07B
:1002A8005CEF01F0016C021ED8B0022A010E061A9A
:1002B800000E086E000E076E03500410D8B467EFE6
:1002C80001F069EF01F091EF01F0010E056E71EF99
:1002D80001F0D89003360436052A04AE76EF01F013
:1002E80078EF01F06DEF01F0D8900736083603502B
:1002F800015C04500258D8A084EF01F086EF01F0A9
:100308008BEF01F00350015E0450025A0780D89029
:1003180004320332052E78EF01F00650D8B497EF77
:1003280001F099EF01F09DEF01F0076C081ED8B0BD
:10033800082A07C001F008C002F01200000E066E7D
:1003480002BEABEF01F0A9EF01F0B1EF01F0016CD3
:10035800021ED8B0022A010E066E04BEB8EF01F0E4
:10036800B6EF01F0BCEF01F0036C041ED8B0042A0C
:1003780003500410D8B4C3EF01F0C5EF01F0E9EF62
:1003880001F0010E056ECDEF01F0D890033604366A
:10039800052A04AED2EF01F0D4EF01F0C9EF01F065
:1003A8000350015C04500258D8A0DDEF01F0DFEFE4
:1003B80001F0E3EF01F00350015E0450025AD890B7
:1003C80004320332052ED4EF01F00650D8B4EFEF13
:1003D80001F0F1EF01F0F5EF01F0016C021ED8B069
:1003E800022A01C001F002C002F0120003500410FA
:1003F800D8B401EF02F003EF02F00CEF02F0035063
:100408000410D8A40AEF02F00CEF02F011EF02F08A
:10041800015061EC03F044EF02F020EE04F00350C9
:10042800D9260450DA22DE50DE10D8B41EEF02F0CE
:1004380020EF02F03BEF02F020EE04F00350D92643
:100448000450DA2210EE02F00350E1260450E222B2
:10045800DE50E65CE650800A096EDE50800A0958D4
:10046800D8B039EF02F03BEF02F044EF02F020EE93
:1004780002F00350D9260450DA22DE2A000EDD22CB
:1004880012000ABE53EF02F00A5007E10A0E095C97
:10049800D8B051EF02F053EF02F059EF02F00950D3
:1004A800300F4AEC03F07DEF02F009C001F00AC0FA
:1004B80002F0000E046E0A0E036E40EC01F001C05B
:1004C8000BF002C00CF009C001F00AC002F0000EE7
:1004D800046E0A0E036EA2EC01F001C00DF002C01A
:1004E8000EF00B50300F4AEC03F00D50300F4AEC71
:1004F80003F0120017C01CF018C01DF019C01EF040
:10050800000E566E000E556E9CEF02F015C00AF0F4
:1005180016C00BF01C0E0C6E000E0D6E1AC00EF0FD
:100528001BC00FF009EC00F00A5055260B5056225C
:100538001CC0F6FF1DC0F7FF1EC0F8FF0800F550ED
:100548000009D8A4AAEF02F0ACEF02F08AEF02F09B
:1005580055C015F056C016F01200849420EE68F0CD
:1005680010EE60F0060EDBCFE3FFE806FCE2000EBB
:100578000001676F8482600E6725D96EDA6A000E03
:10058800DA22DF50836E100EE82EFED700D0849258
:10059800100EE82EFED700D00001672B060E676507
:1005A800D8EF02F0DAEF02F0BEEF02F08484120016
:1005B800BA0EF66E060EF76E000EF86E00EE68F0D4
:1005C80010EE07F00900F5CFEEFFE550E150FAE133
:1005D80000EE31F02C0EEE6AE806FDE15D905D92CA
:1005E800000EF86E0001F9EF02F058EC03F0B1ECE0
:1005F80002F0D08EF28EF29CF294F28AF184830E8D
:10060800D56E000E936E000E816E000E956E000E74
:10061800836E0B0ED76EDC0ED66E040011EF03F05E
:1006280007EF00F0220E246E000E256E000E156EE8
:10063800000E166E1FC017F020C018F021C019F068
:10064800240E1A6E000E1B6E7EEC02F01200016E74
:100658008494848201C083FF100EE82EFED700D058
:100668008492100EE82EFED700D084841200849461
:100678008482010E836E100EE82EFED700D084927D
:10068800100EE82EFED700D084841200016E8482FA
:1006980001C083FF100EE82EFED700D08492100E02
:1006A800E82EFED700D01200000E956E000E966E52
:0906B8001200303030380C06014C
:0206C200120024
:020000040020DA
:08000000FFFFFFFFFFFFFFFF00
:020000040030CA
:0E000000000C191EFF8080FF0FC00FE00F40A4
:00000001FF
