:0400000042EF09F0D2
:100800000050726F6772616D204F75740D0A004C55
:10081000454430204F46460D0A004C454431204F98
:1008200046460D0A004C454432204F46460D0A000C
:100830004C454433204F46460D0A004C4544342075
:100840004F46460D0A004C454435204F46460D0A9A
:10085000004C454436204F46460D0A004C4544376F
:10086000204F46460D0A00496E76616C69646F0D33
:100870000A0046696E697368210D0A004C454430D0
:10088000204F4E0D0A004C454431204F4E0D0A00BA
:100890004C454432204F4E0D0A004C454433204F06
:1008A0004E0D0A004C454434204F4E0D0A004C4575
:1008B0004435204F4E0D0A004C454436204F4E0D16
:1008C0000A004C454437204F4E0D0A004E756D20EE
:1008D000706F727461005374617274210D0A004F5D
:0B08E0004646004F7574004F4E0000AC
:1008EC00000E936E000E816E4BEC09F0800E0F6EB5
:1008FC00250E106E000E116E000E126ECCEC06F072
:10090C00D60E016E080E026E51EC08F01F0E016E31
:10091C00000E026E99EC08F01F0E016E000E026EB6
:10092C0051EC08F01F0E016E000E026EE70E036E06
:10093C00080E046E000E066E020E056EE6EC07F055
:10094C0001500210D8A4ADEF04F0AFEF04F04BEF60
:10095C0005F0CC0E016E080E026E51EC08F01F0E65
:10096C00016E000E026E99EC08F01F0E016E000E67
:10097C00026E51EC08F01F0E086E000E096E24EC8E
:10098C0006F008C029F009C02AF01DEF05F081809F
:10099C007C0E016E080E026E51EC08F04BEF05F068
:1009AC008182860E016E080E026E51EC08F04BEF40
:1009BC0005F08184900E016E080E026E51EC08F069
:1009CC004BEF05F081869A0E016E080E026E51EC0B
:1009DC0008F04BEF05F08188A40E016E080E026E34
:1009EC0051EC08F04BEF05F0818AAE0E016E080E4B
:1009FC00026E51EC08F04BEF05F0818CB80E016ED5
:100A0C00080E026E51EC08F04BEF05F0818EC20E11
:100A1C00016E080E026E51EC08F04BEF05F0670EFC
:100A2C00016E080E026E51EC08F04BEF05F029C078
:100A3C001DF02AC01EF01E50000AD8B428EF05F095
:100A4C0015EF05F01D50000AD8B4CDEF04F0010AE3
:100A5C00D8B4D6EF04F0030AD8B4DFEF04F0010ADF
:100A6C00D8B4E8EF04F0070AD8B4F1EF04F0010AA7
:100A7C00D8B4FAEF04F0030AD8B403EF05F0010A76
:100A8C00D8B40CEF05F015EF05F01F0E016E000E3B
:100A9C00026EDF0E036E080E046E000E066E030E61
:100AAC00056EE6EC07F001500210D8A460EF05F0DB
:100ABC0062EF05F0FEEF05F0CC0E016E080E026E33
:100ACC0051EC08F01F0E016E000E026E99EC08F04E
:100ADC001F0E016E000E026E51EC08F01F0E086E18
:100AEC00000E096E24EC06F008C029F009C02AF0AB
:100AFC00D0EF05F081900F0E016E080E026E51ECD6
:100B0C0008F0FEEF05F081921A0E016E080E026ECF
:100B1C0051EC08F0FEEF05F08194250E016E080EE5
:100B2C00026E51EC08F0FEEF05F08196300E016E6E
:100B3C00080E026E51EC08F0FEEF05F081983B0EAA
:100B4C00016E080E026E51EC08F0FEEF05F0819A72
:100B5C00460E016E080E026E51EC08F0FEEF05F029
:100B6C00819C510E016E080E026E51EC08F0FEEFE6
:100B7C0005F0819E5C0E016E080E026E51EC08F0C1
:100B8C00FEEF05F0670E016E080E026E51EC08F0D8
:100B9C00FEEF05F029C01DF02AC01EF01E50000A01
:100BAC00D8B4DBEF05F0C8EF05F01D50000AD8B43F
:100BBC0080EF05F0010AD8B489EF05F0030AD8B428
:100BCC0092EF05F0010AD8B49BEF05F0070AD8B4F0
:100BDC00A4EF05F0010AD8B4ADEF05F0030AD8B4C0
:100BEC00B6EF05F0010AD8B4BFEF05F0C8EF05F079
:100BFC001F0E016E000E026EE30E036E080E046EE5
:100C0C00000E066E030E056EE6EC07F001500210A6
:100C1C00D8A413EF06F015EF06F08CEF04F0010EDC
:100C2C00016E080E026E51EC08F08192720E016E8C
:100C3C00080E026E51EC08F000EF00F0000E116E81
:100C4C00000E106E000E0F6E000E0E6E30EF06F0E2
:100C5C00084A092A08C0D9FF09C0DAFF200EDE189D
:100C6C00D8B43BEF06F03DEF06F02EEF06F0F70E92
:100C7C000A6EFF0E0B6E08C0D9FF09C0DAFFDF50F9
:100C8C000C6E0D6A0A500C260B500D220D5009E10A
:100C9C00050E0C5CD8A055EF06F057EF06F02EEFC2
:100CAC0006F061EF06F0000E0F6E010E0E6E084A94
:100CBC00092A96EF06F008C0D9FF09C0DAFFDF5009
:100CCC000A6E0B6A0B50000AD8B46FEF06F096EF61
:100CDC0006F00A502B0AD8B45DEF06F0060AD8B419
:100CEC0059EF06F096EF06F010C001F011C002F0BB
:100CFC00000E046E0A0E036E25EC09F008C0D9FF35
:100D0C0009C0DAFFDF500A6E0A50015E000E025A6B
:100D1C00300E0124106E000E0220116E5DEF06F0F5
:100D2C00D00E0A6EFF0E0B6E08C0D9FF09C0DAFF99
:100D3C00DF500C6E0D6A0A500C260B500D220D5014
:100D4C0009E10A0E0C5CD8A0AEEF06F0B0EF06F08D
:100D5C007AEF06F00E500F10D8A4B7EF06F0B9EFEB
:100D6C0006F0C7EF06F010C00AF011C00BF00A1E17
:100D7C000B1E0A4A0B2A0AC008F00BC009F0CBEF75
:100D8C0006F010C008F011C009F012000FC013F0EB
:100D9C0010C014F011C015F012C016F0060ED89049
:100DAC001336143615361636E82ED5EF06F01350DA
:100DBC000008016E090E1454026E3D0E1554036E9C
:100DCC00000E1654046E0FC017F010C018F011C0AE
:100DDC0019F012C01AF0060ED890173618361936BC
:100DEC001A36E82EF2EF06F017C005F018C006F020
:100DFC0019C007F01AC008F060EC07F001C01BF036
:100E0C0002C01CF01C04D8A00EEF07F010EF07F086
:100E1C004DEF07F00FC013F010C014F011C015F017
:100E2C0012C016F0040ED89013361436153616363A
:100E3C00E82E19EF07F013500008016E090E145438
:100E4C00026E3D0E1554036E000E1654046E0FC048
:100E5C0017F010C018F011C019F012C01AF0040EDF
:100E6C00D8901736183619361A36E82E36EF07F0A2
:100E7C0017C005F018C006F019C007F01AC008F02A
:100E8C0060EC07F001C01BF002C01CF0AC841C0429
:100E9C00D8B053EF07F055EF07F05FEF07F01BC02A
:100EAC00AFFFAC98AB8E948E949CAB88AC8A9D882B
:100EBC009D8A1200000E0A6E08BE69EF07F067EFFC
:100ECC0007F073EF07F0081E071E061E056C000ED8
:100EDC00062207220822010E0A6E04BE7AEF07F0E2
:100EEC0078EF07F084EF07F0041E031E021E016C5E
:100EFC00000E022203220422010E0A1A000E0B6EAF
:100F0C00000E0C6E000E0D6E000E0E6E05500610CF
:100F1C0007100810D8B495EF07F097EF07F0CDEF56
:100F2C0007F0010E096EA1EF07F0D89005360636D2
:100F3C0007360836092A08AEA6EF07F0A8EF07F027
:100F4C009BEF07F0D8900B360C360D360E3605504D
:100F5C00015C065002580750035808500458D8A09A
:100F6C00BAEF07F0BCEF07F0C5EF07F00550015ED4
:100F7C000650025A0750035A0850045A0B80D89056
:100F8C000832073206320532092EA8EF07F00A5054
:100F9C00D8B4D3EF07F0D5EF07F0DDEF07F00E1E56
:100FAC000D1E0C1E0B6C000E0C220D220E220BC003
:100FBC0001F00CC002F00DC003F00EC004F01200E2
:100FCC0001C008F002C009F003C00AF004C00BF025
:100FDC000506D8A00606052806E10628D8A4F9EFD0
:100FEC0007F0FBEF07F008EF08F0000E026E000EA2
:100FFC00016E50EF08F0084A092A0A4A0B2A050626
:10100C00D8A0060608C0D9FF09C0DAFFDF50D8B453
:10101C0012EF08F014EF08F03FEF08F00AC0F6FFEB
:10102C000BC0F7FF0800F5500009D8B420EF08F00A
:10103C0022EF08F03FEF08F005500610D8B429EF66
:10104C0008F02BEF08F03FEF08F008C0D9FF09C0FB
:10105C00DAFFDF50076E0AC0F6FF0BC0F7FF08007F
:10106C00F5500718D8B43DEF08F03FEF08F001EF4A
:10107C0008F008C0D9FF09C0DAFFDF50076E0AC0BC
:10108C00F6FF0BC0F7FF0800F550075C016E026A13
:10109C00D8A002061200000E066E000E056E7AEF46
:1010AC0008F005500124036E06500220046E03C0A4
:1010BC00F6FF04C0F7FFF86A070EF76403D00800C8
:1010CC00F55005D0F6CFE9FFF7CFEAFFEF50AD6E44
:1010DC0038EC09F00009D8A476EF08F078EF08F0A6
:1010EC006EEF08F0054A062A05500124036E0650DF
:1010FC000220046E03C0F6FF04C0F7FFF86A070E67
:10110C00F76403D00800F55005D0F6CFE9FFF7CF10
:10111C00EAFFEF500009D8A496EF08F098EF08F01A
:10112C0057EF08F01200000E066E000E056E47EC2D
:10113C0009F00009D8B4A5EF08F0A7EF08F09DEF6F
:10114C0008F005500124D96E06500220DA6EAECF9D
:10115C00DFFF05500124D96E06500220DA6E0D0E09
:10116C00DE18D8B4BCEF08F0BEEF08F0D1EF08F0F1
:10117C0005500124D96E06500220DA6E0A0EDE18D4
:10118C00D8B4CBEF08F0CDEF08F0D1EF08F0054A5A
:10119C00062A9DEF08F005500124036E065002202C
:1011AC00046E010E0324D96E000E0420DA6E000EBC
:1011BC00DF6E1200010E076E200E01180210D8B45B
:1011CC00EAEF08F0ECEF08F005EF09F0F70E036E0C
:1011DC00FF0E046E01C005F002C006F00350052698
:1011EC0004500622065009E1050E055CD8A001EF5B
:1011FC0009F003EF09F005EF09F0000E076E07C0C8
:10120C0001F0026A1200D00E036EFF0E046E01C0D4
:10121C0005F002C006F003500526045006220650C5
:10122C000AE10A0E055CD8A01EEF09F021EF09F0C7
:10123C00010E22EF09F0000E016E026A120001503D
:10124C000302F3CF05F0F4CF06F001500402F35083
:10125C00062602500302F350062605C001F006C014
:10126C0002F01200ACA23DEF09F040EF09F0010EC4
:10127C0041EF09F0000E1200000EF86E000176EF3F
:0E128C0004F0000E9EBA010E1200AB9E12007E
:020000040020DA
:08000000FFFFFFFFFFFFFFFF00
:020000040030CA
:0E000000000C191EFF8180FF0FC00FE00F40A3
:00000001FF
