:020000040000FA
:04000000F3EF04F026
:10080000005465737465204C434420636F6D20620F
:100810006F005365206973736F2061706172656347
:1008200065720044657520636572746F206F6B217B
:10083000210044657520636572746F0074616F00F8
:10084000584400002DEC05F0ADEC04F081B02BEF26
:1008500004F02DEF04F041EF04F01EEC05F0800EE3
:100860000EEC05F0010E056E080E066E7BEC04F032
:10087000C00E0EEC05F03C0E056E080E066E7BEC0D
:1008800004F081B246EF04F048EF04F05CEF04F0AE
:100890001EEC05F0800E0EEC05F0120E056E080E33
:1008A000066E7BEC04F0C00E0EEC05F0320E056E09
:1008B000080E066E7BEC04F081B461EF04F063EF88
:1008C00004F026EF04F01EEC05F0800E0EEC05F0AF
:1008D000230E056E080E066E7BEC04F0C00E0EECC7
:1008E00005F0400E056E080E066E7BEC04F026EF58
:1008F00004F000EF00F005C001F006C002F0D6ECF5
:1009000004F00150096E000E0A6EA3EF04F0848219
:100910000A500524076E000E0620086E07C0F6FF79
:1009200008C0F7FF0800F5CF83FF410E076EEE0EFB
:10093000E82EFED7072EFCD700D08492100EE82EAA
:10094000FED700D00A2A09500A5CD8A0AAEF04F00A
:10095000ACEF04F087EF04F01200849420EE0BF06B
:1009600010EE01F0060EDBCFE3FFE806FCE2000E1E
:10097000086E8482010E0824D96EDA6A000EDA222B
:10098000DF50836E100EE82EFED700D08492100E3A
:10099000E82EFED700D0082A060E0864D2EF04F035
:1009A000D4EF04F0B9EF04F08484120001C003F026
:1009B00002C004F0DEEF04F0014A022A01C0F6FF93
:1009C00002C0F7FF0800F5500009D8A4EAEF04F0D0
:1009D000ECEF04F0DCEF04F00350015C016E045016
:1009E0000258026E1200640EF66E0A0EF76E000ECA
:1009F000F86E00EE0BF010EE07F00900F5CFEEFFF9
:100A0000E550E150FAE1156A146A136A126A000EA1
:100A1000F86E080EF76E000122EF04F0016E849468
:100A2000848201C083FF100EE82EFED700D084928E
:100A3000100EE82EFED700D08484120084948482A5
:100A4000010E836E100EE82EFED700D08492100E99
:100A5000E82EFED700D084841200000E956E000EA2
:0B0A6000966E1200303030380C06019A
:020000040020DA
:08000000FFFFFFFFFFFFFFFF00
:020000040030CA
:0E000000000C191EFF8080FF0FC00FE00F40A4
:00000001FF
