:020000040000FA
:040000003CEF35F0AC
:106A2D00303030380C0601000E956E000E966E1249
:106A3D0000016E848201C083FF100EE82EFED70088
:106A4D00D08492100EE82EFED700D01200849484CC
:106A5D0082010E836E100EE82EFED700D0849210A8
:106A6D000EE82EFED700D0848412002D0EF66E6A2D
:106A7D000EF76E000EF86E00EE55F010EE07F009F1
:106A8D0000F5CFEEFFE550E150FAE15F6A5E6A5D19
:106A9D006A5C6A00019FEF35F0000E151A000E16A4
:106AAD001A000E171A800E181A11C001F012C0022A
:106ABD00F013C003F014C004F015C005F016C006A5
:106ACD00F017C007F018C008F0A0EC3DF001C011A0
:106ADD00F002C012F003C013F004C014F0120084D1
:106AED009420EE55F010EE01F0060EDBCFE3FFE83B
:106AFD0006FCE2000E086E8482010E0824D96EDABF
:106B0D006A000EDA22DF50836E100EE82EFED700DB
:106B1D00D08492100EE82EFED700D0082A060E085B
:106B2D00649BEF35F09DEF35F082EF35F0848412E4
:106B3D00001AEC35F076EC35F00E0EC16EAC0EC0D1
:106B4D006E010EC26EC28205EF36F0000E136E009E
:106B5D000E146EA00E156E400E166EC350C4CF4FA0
:106B6D00F0506A4FC050F04F6A4F26000E50224F22
:106B7D00C001F050C002F0000E02BEFF0E036E0405
:106B8D006E010EDBEC37F001C00FF002C010F00308
:106B9D00C011F004C012F08BEC3BF00FC028F010C8
:106BAD00C029F011C02AF012C02BF0000E2C6EC0BF
:106BBD000E2D6E7F0E2E6E440E2F6EBEEC39F0280C
:106BCD00C051F029C052F02AC053F02BC054F02D03
:106BDD00EC35F051C041F052C042F053C043F05477
:106BED00C044F0000E466E020E456E15EC37F08275
:106BFD000E4F6EDE0EE82EFED74F2EFCD7C2B20A18
:106C0D00EF36F00CEF36F0ACEF35F0A9EF35F000C4
:106C1D00EF00F0000E0114096E000E02140A6E80D2
:106C2D000E03140B6E7F0E04140C6E09500A100B1C
:106C3D00100C10D8A425EF36F027EF36F02FEF36D5
:106C4D00F0000E016E000E026E000E036E000E04BB
:106C5D006E000E0514096E000E06140A6E800E07E6
:106C6D00140B6E7F0E08140C6E09500A100B100CCD
:106C7D0010D8A444EF36F046EF36F04EEF36F00064
:106C8D000E056E000E066E000E076E000E086E04E9
:106C9D00AE53EF36F055EF36F05EEF36F0016C0285
:106CAD001ED8B0022A031ED8B0032A800E0456083F
:106CBD00AE63EF36F065EF36F06EEF36F0056C062D
:106CCD001ED8B0062A071ED8B0072A800E08560017
:106CDD000E011A000E021A000E031A800E041A007D
:106CED000E051A000E061A000E071A800E081A0558
:106CFD0050015C065002580750035808500458D8EC
:106D0D00B08BEF36F08DEF36F090EF36F0D89091E6
:106D1D00EF36F0D8801200173418341E6E1E50D87E
:106D2D00A49BEF36F09DEF36F0A7EF36F0000E1571
:106D3D006E000E166E000E176E000E186E14EF37E5
:106D4D00F015C019F016C01AF017C01BF018C01CB2
:106D5D00F0200EB7EF36F0D8901C321B321A3219D4
:106D6D0032E82EB2EF36F019501D6E178EFF0E154C
:106D7D0016FF0E1616FF0E1716000E1816960E1E7F
:106D8D005E1EBECEEF36F0CCEF36F0E4EF36F01EE1
:106D9D0050800A970FD8B0D6EF36F0D8EF36F0DA2C
:106DAD00EF36F09DEF36F0D89018321732163215B7
:106DBD00321E3EDAEF36F0FCEF36F01F0E1E64EA9F
:106DCD00EF36F0ECEF36F0F4EF36F09DEF36F0D80D
:106DDD009015361636173618361E061E50D8A4FADC
:106DED00EF36F0FCEF36F0EEEF36F01D50D8B40272
:106DFD00EF37F004EF37F00CEF37F0181E171E16B3
:106E0D001E156C000E16221722182215C015F0162D
:106E1D00C016F017C017F018C018F01200000E4E73
:106E2D006E000E4D6E36EF37F041C028F042C0298E
:106E3D00F043C02AF044C02BF0000E2C6E000E2D36
:106E4D006E200E2E6E410E2F6EBEEC39F028C04115
:106E5D00F029C042F02AC043F02BC044F04E2A4125
:106E6D00C001F042C002F043C003F044C004F00082
:106E7D000E056E000E066E800E076E3F0E086E102C
:106E8D00EC36F0D8B04DEF37F04FEF37F01BEF3752
:106E9D00F04E50D8A455EF37F057EF37F0C2EF371B
:106EAD00F0300E1FEC35F02E0E1FEC35F0C2EF3723
:106EBD00F04D2A41C00FF042C010F043C011F04414
:106ECD00C012F0000E136E000E146E200E156E41E2
:106EDD000E166E8BEC3BF00FC041F010C042F0115E
:106EED00C043F012C044F041C001F042C002F04373
:106EFD00C003F044C004F0B5EC38F001C015F00249
:106F0D00C016F003C017F004C018F092EC36F0155F
:106F1D00504C6E41C011F042C012F043C013F0440A
:106F2D00C014F04C50016E026A036A046A010EDB54
:106F3D00EC37F001C015F002C016F003C017F004D5
:106F4D00C018F053EC35F011C041F012C042F013EF
:106F5D00C043F014C044F04C50300F1FEC35F04ED0
:106F6D00504D18D8A4BDEF37F0BFEF37F0C2EF3753
:106F7D00F02E0E1FEC35F04E504524476E000E4698
:106F8D0020486E4D50496E4A6A4750495C4A5080C0
:106F9D000A4B6E4850800A4B58D8A0D8EF37F0DA1C
:106FAD00EF37F05FEF37F01200096E0950D8B4E2F9
:106FBD00EF37F0E4EF37F006EF38F004BEEBEF37C4
:106FCD00F0E9EF37F006EF38F001C005F002C0062A
:106FDD00F003C007F004C008F0051E061E071E08CA
:106FED001E052A000E06220722082205C00BF006F8
:106FFD00C00CF007C00DF008C00EF00EEF38F00118
:10700D00C00BF002C00CF003C00DF004C00EF00177
:10701D0050021003100410D8A417EF38F019EF38F0
:10702D00F023EF38F0000E016E000E026E000E031D
:10703D006E000E046EB4EF38F0960E0A6E2DEF381A
:10704D00F00A2AD8900E320D320C320B32000E0B94
:10705D0014056E000E0C14066E000E0D14076EFE58
:10706D000E0E14086E0550061007100810D8A44215
:10707D00EF38F044EF38F027EF38F052EF38F00AE0
:10708D002A010E0B26000E0C220D220E22D8900E78
:10709D00320D320C320B32000E0B14056E000E0C3D
:1070AD0014066E000E0D14076EFF0E0E14086E05FD
:1070BD0050061007100810D8A467EF38F069EF38A4
:1070CD00F046EF38F071EF38F00A06D8900B360C19
:1070DD00360D360E360DBE76EF38F078EF38F0807F
:1070ED00EF38F0020E0A607EEF38F080EF38F06B6B
:1070FD00EF38F00AB085EF38F087EF38F088EF38C9
:10710D00F00D9ED8900A320AC005F0066A076A088B
:10711D006A05C008F0076A066A056A05500B120673
:10712D00500C1207500D1208500E120950D8B4A26F
:10713D00EF38F0A4EF38F0ACEF38F004BEABEF3819
:10714D00F0A9EF38F0ACEF38F00E8E0BC001F00C5B
:10715D00C002F00DC003F00EC004F012005CC011AF
:10716D00F05DC012F05EC013F05FC014F001C011ED
:10717D00F002C012F003C013F004C014F0810E052C
:10718D006EFF0E066E11C007F012C008F013C00995
:10719D00F014C00AF0180ED9EF38F0D8900A320961
:1071AD003208320732E82ED4EF38F0075005240F9D
:1071BD006E000E0620106E10BEEEEF38F010500966
:1071CD00E1170E0F5CD8A0EEEF38F0F0EF38F0FAC3
:1071DD00EF38F001C001F002C002F003C003F0046B
:1071ED00C004F0BDEF39F010BEFFEF38F001EF39FC
:1071FD00F071EF39F00FC005F0FF0E066EFF0E07B0
:10720D006E7F0E086E000E096E056610EF39F018D0
:10721D00EF39F009340932083207320632052E0BE8
:10722D00EF39F006C00BF007C00CF008C00DF009E7
:10723D00C00EF00B501114056E0C501214066E0D8D
:10724D00501314076E0E501414086E0550061007D7
:10725D00100810D8A435EF39F037EF39F039EF3980
:10726D00F0F0EF38F011C005F012C006F013C007B2
:10727D00F014C008F0200E49EF39F0D8900832070D
:10728D003206320532E82E44EF39F005500610076C
:10729D00100810D8B455EF39F057EF39F05FEF39CA
:1072AD00F00B5011260C5012220D5013220E5014BB
:1072BD00220B1C056E0C1C066E0D1C076E0E1C0899
:1072CD006E0550111606501216075013160850145D
:1072DD0016B5EF39F011C005F012C006F013C00756
:1072ED00F014C008F0200E81EF39F0D89008320765
:1072FD003206320532E82E7CEF39F00550061007C4
:10730D00100810D8A48DEF39F08FEF39F099EF39BF
:10731D00F0000E116E000E126E000E136E000E14A4
:10732D006EB5EF39F0D8901134056E1234066E1328
:10733D0034076E1434086E0550061007100810D867
:10734D00B4ABEF39F0ADEF39F0B5EF39F0000E1108
:10735D006E000E126E800E136EBF0E146E11C001F4
:10736D00F012C002F013C003F014C004F012002B91
:10737D0050800B386E2B502B243F6E2AAEC9EF393F
:10738D00F0CBEF39F0CCEF39F03F803F50D8B4D28D
:10739D00EF39F0D4EF39F0E9EF39F03F28D8A4DA1E
:1073AD00EF39F0DCEF39F0E4EF39F0000E286E0024
:1073BD000E296E000E2A6E000E2B6E2A8E000E2BDD
:1073CD006EF1EF39F0000E286E000E296E000E2AB8
:1073DD006E000E2B6E2F50800B381A2F502F24401D
:1073ED006E2EAEFCEF39F0FEEF39F0FFEF39F040C5
:1073FD00804050D8B405EF3AF007EF3AF01CEF3A61
:10740D00F04028D8A40DEF3AF00FEF3AF017EF3A0D
:10741D00F0000E2C6E000E2D6E000E2E6E000E2F37
:10742D006E2E8E000E2F6E24EF3AF0000E2C6E0095
:10743D000E2D6E000E2E6E000E2F6E2C502D102E5A
:10744D00102F10D8A42DEF3AF02FEF3AF047EF3A66
:10745D00F0000E286E000E296E000E2A6E000E2B07
:10746D006E800E2A127F0E2B1238502B1228C02838
:10747D00F029C029F02AC02AF02BC02BF08AEF3B4F
:10748D00F03F50D8A44DEF3AF04FEF3AF059EF3AA4
:10749D00F0000E286E000E296E000E2A6E000E2BC7
:1074AD006E8AEF3BF040503FC030F0316A305E00E5
:1074BD000E315A7F0E3024396E000E31203A6E286F
:1074CD00C034F029C035F02AC036F02BC037F0009B
:1074DD000E286E000E296E000E2A6E000E2B6E0009
:1074ED000E3B6E000E3C6E000E3D6E000E3E6E00AD
:1074FD000E406EBAEF3AF04050D8B488EF3AF08AA9
:10750D00EF3AF0A1EF3AF0D89034363536363637BB
:10751D0036D890283629362A362B363EAE99EF3A94
:10752D00F09BEF3AF09CEF3AF02880D8903B363C38
:10753D00363D363E362C50345C2D5035582E503657
:10754D00582F503758D8A0AEEF3AF0B0EF3AF0B907
:10755D00EF3AF03E8C2C50345E2D50355A2E50366D
:10756D005A2F50375A402A190E4064C0EF3AF0C2D4
:10757D00EF3AF082EF3AF03450351036103710D81C
:10758D00B4CBEF3AF0CDEF3AF0E5EF3AF03B80E5D2
:10759D00EF3AF0D890283629362A362B363EAEDA19
:1075AD00EF3AF0DCEF3AF0DDEF3AF02880D8903B7F
:1075BD00363C363D363E363906D8A03A062AAEEA76
:1075CD00EF3AF0ECEF3AF0D0EF3AF0000E406E3EAD
:1075DD00AEF3EF3AF0F5EF3AF019EF3BF0FF0E3B5B
:1075ED0014306EFF0E3C14316EFF0E3D14326E7F63
:1075FD000E3E14336E3050311032103310D8B40AA1
:10760D00EF3BF00CEF3BF010EF3BF0010E406E192D
:10761D00EF3BF028A015EF3BF017EF3BF019EF3BD8
:10762D00F00CEF3BF04050D8B41FEF3BF021EF3B97
:10763D00F045EF3BF0010E2826000E29222A222BC1
:10764D00222BA02CEF3BF02EEF3BF045EF3BF0282B
:10765D00C030F029C031F02AC032F02BC033F033E6
:10766D0034333232323132303230C028F031C02929
:10767D00F032C02AF033C02BF0394A3A2A3ABE50C4
:10768D00EF3BF03A5008E13928D8A050EF3BF052CB
:10769D00EF3BF05DEF3BF0000E3A6E3968000E28BF
:1076AD006E000E296E000E2A6E000E2B6E3ABE6A0B
:1076BD00EF3BF03A5006E13904D8B068EF3BF06A81
:1076CD00EF3BF078EF3BF0000E3A6E000E396E0096
:1076DD000E286E000E296E000E2A6E000E2B6E0007
:1076ED000E386E39C03FF03FA07FEF3BF081EF3B8E
:1076FD00F084EF3BF02A8E85EF3BF02A9ED8903F29
:10770D00302B6E3BEF3AF012001250800B1B6E12B5
:10771D00501224216E11AE96EF3BF098EF3BF0998D
:10772D00EF3BF021802150D8B49FEF3BF0A1EF3B10
:10773D00F0B4EF3BF02128D8A4A7EF3BF0A9EF3B25
:10774D00F0B1EF3BF0000E0F6E000E106E000E113B
:10775D006E000E126E118EBCEF3BF0000E0F6E0020
:10776D000E106E000E116E000E126E1650800B1B59
:10777D001A16501624206E15AEC7EF3BF0C9EF3B1D
:10778D00F0CAEF3BF020802050D8B4D0EF3BF0D2C0
:10779D00EF3BF0E5EF3BF02028D8A4D8EF3BF0DA33
:1077AD00EF3BF0E2EF3BF0000E136E000E146E0097
:1077BD000E156E000E166E158EEDEF3BF0000E13CE
:1077CD006E000E146E000E156E000E166E2050D843
:1077DD00B4F3EF3BF0F5EF3BF0FDEF3BF02150D86C
:1077ED00A4FBEF3BF0FDEF3BF007EF3CF0000E0F7D
:1077FD006E000E106E000E116E000E126E9FEF3D9C
:10780D00F015500F02F3CF26F0F4CF27F026501CC1
:10781D006E1D6A1E6A1F6A2750226E236A246A250E
:10782D006A14501002F3CF26F0F4CF27F026501C27
:10783D0026000E1D221E221F2227502226000E2357
:10784D00222422252213501102F3CF26F0F4CF2744
:10785D00F026501C26000E1D221E221F222750220C
:10786D0026000E2322242225221EC01FF01DC01E1D
:10787D00F01CC01DF01C6A13501002F3CF26F0F45B
:10788D00CF27F026501C2627501D22000E1E220049
:10789D000E1F2214500F02F3CF26F0F4CF27F0263F
:1078AD00501C2627501D22000E1E22000E1F221EC8
:1078BD00C01FF01DC01EF01CC01DF01C6A13500F20
:1078CD0002F3CF26F0F4CF27F026501C2627501DAB
:1078DD0022000E1E22000E1F2215501002F3CF267D
:1078ED00F0F4CF27F02650222627502322000E2415
:1078FD0022000E252214501102F3CF26F0F4CF27CB
:10790D00F02650222627502322000E2422000E2579
:10791D002215501102F3CF26F0F4CF27F026501781
:10792D006E2750186E196A1A6A19C01AF018C01904
:10793D00F017C018F0176A17502226185023221975
:10794D005024221A5025221CC017F01DC018F01EFD
:10795D00C019F01FC01AF0190EBAEF3CF0D8901AEA
:10796D0032193218321732E82EB5EF3CF01750228B
:10797D002618502322195024221A5025221EC01FCA
:10798D00F01DC01EF01CC01DF01C6A205021C01738
:10799D00F0186A1726000E1822820E1724266EFF85
:1079AD000E1820276EF0EF3CF0D8902236233624A7
:1079BD003625361FAEE5EF3CF0E7EF3CF0E8EF3C47
:1079CD00F02280D8901C361D361E361F362606D85E
:1079DD00A0270624AEF5EF3CF0F7EF3CF0DBEF3CD3
:1079ED00F0000E206E1FAEFEEF3CF000EF3DF024D8
:1079FD00EF3DF0FF0E1C14176EFF0E1D14186EFFD9
:107A0D000E1E14196E7F0E1F141A6E1750181019B2
:107A1D00101A10D8B415EF3DF017EF3DF01BEF3DE8
:107A2D00F0010E206E24EF3DF022A020EF3DF0225C
:107A3D00EF3DF024EF3DF017EF3DF02050D8B42A84
:107A4D00EF3DF02CEF3DF050EF3DF0010E22260002
:107A5D000E23222422252225A037EF3DF039EF3DBC
:107A6D00F050EF3DF022C017F023C018F024C019DC
:107A7D00F025C01AF01A341A32193218321732178B
:107A8D00C022F018C023F019C024F01AC025F0262A
:107A9D004A272A27BE5BEF3DF0275008E12628D85C
:107AAD00A05BEF3DF05DEF3DF067EF3DF0000E2286
:107ABD006E000E236E800E246E7F0E256E95EF3DAB
:107ACD00F027BE74EF3DF0275006E12604D8B072C2
:107ADD00EF3DF074EF3DF080EF3DF0000E226E00B3
:107AED000E236E000E246E000E256E000E1B6E957D
:107AFD00EF3DF026C021F0FF0E2216FF0E23167F5C
:107B0D000E2416000E251621A08FEF3DF091EF3DAE
:107B1D00F092EF3DF0248ED8902130256E1B50252C
:107B2D001222C00FF023C010F024C011F025C01296
:107B3D00F012000450800B0D6E045004240F6E03E0
:107B4D00AEABEF3DF0ADEF3DF0AEEF3DF00F800F82
:107B5D0050D8B4B4EF3DF0B6EF3DF0CBEF3DF00FA4
:107B6D0028D8A4BCEF3DF0BEEF3DF0C6EF3DF000D0
:107B7D000E016E000E026E000E036E000E046E03FB
:107B8D008E000E046ED3EF3DF0000E016E000E025E
:107B9D006E000E036E000E046E0850800B0E6E0DFF
:107BAD00500E18D8B4DDEF3DF0DFEF3DF0E0EF3DC6
:107BBD00F00D8C085008240E6E07AEE8EF3DF0EA8C
:107BCD00EF3DF0EBEF3DF00E800E50D8B4F1EF3DF0
:107BDD00F0F3EF3DF008EF3EF00E28D8A4F9EF3D9D
:107BED00F0FBEF3DF003EF3EF0000E056E000E06CC
:107BFD006E000E076E000E086E078E000E086E10DA
:107C0D00EF3EF0000E056E000E066E000E076E00C4
:107C1D000E086E0F500E5CD8B017EF3EF019EF3E08
:107C2D00F040EF3EF00DAC1EEF3EF020EF3EF022A7
:107C3D00EF3EF0800E0D1A0FC010F00EC00FF010B9
:107C4D00C00EF001C010F005C001F010C005F0022B
:107C5D00C010F006C002F010C006F003C010F0070F
:107C6D00C003F010C007F004C010F008C004F010FD
:107C7D00C008F0000E106E0F500EC009F00A6A0910
:107C8D005E000E0A5A0ABE55EF3EF00A5009E11A7F
:107C9D000E095CD8A055EF3EF057EF3EF08EEF3E4B
:107CAD00F00150021003100410D8A460EF3EF063F1
:107CBD00EF3EF0010E64EF3EF0000E106E000E016F
:107CCD006E000E026E000E036E000E046E0EC00FDF
:107CDD00F097EF3EF010A076EF3EF078EF3EF07E9D
:107CED00EF3EF0D89010300109106E80EF3EF0D8C5
:107CFD0090103201A085EF3EF087EF3EF088EF3E09
:107D0D00F0108E043404320332023201320F2A0E87
:107D1D00500F5CD8A095EF3EF097EF3EF071EF3E1F
:107D2D00F00DBC9CEF3EF09EEF3EF0DEEF3EF00F0F
:107D3D0050D8A4A4EF3EF0A6EF3EF0B0EF3EF00019
:107D4D000E016E000E026E000E036E000E046EFF2D
:107D5D00EF3FF0055001260650022207500322087E
:107D6D0050042204A0BDEF3EF0BFEF3EF06BEF3F9D
:107D7D00F010A0C4EF3EF0C6EF3EF0CCEF3EF0D8D1
:107D8D009010300109106ECEEF3EF0D890103201F8
:107D9D00A0D3EF3EF0D5EF3EF0D6EF3EF0108E04BF
:107DAD003404320332023201320F2A6BEF3FF005F9
:107DBD0050015C06500258075003580450800A09C0
:107DCD006E0850800A0958D8B0EFEF3EF0F1EF3E43
:107DDD00F01CEF3FF00150055C096E025006580A89
:107DED006E035007580B6E045008580C6EFF0E09A9
:107DFD0024016EFF0E0A20026EFF0E0B20036EFF94
:107E0D000E0C20046E800E0D1A106C1050D8A4129A
:107E1D00EF3FF014EF3FF024EF3FF0010E0126008D
:107E2D000E02220322042224EF3FF00550015E06CC
:107E3D0050025A0750035A0850045A0150021003B9
:107E4D00100410D8A42DEF3FF02FEF3FF064EF3F5B
:107E5D00F01050D8A435EF3FF037EF3FF064EF3F0F
:107E6D00F0000E016E000E026E000E036E000E0489
:107E7D006EFFEF3FF0D89001360236033604361010
:107E8D00AE4BEF3FF04DEF3FF04EEF3FF001801066
:107E9D00A053EF3FF055EF3FF059EF3FF0D8801072
:107EAD00365BEF3FF0D89010360F50D8B461EF3FEE
:107EBD00F063EF3FF064EF3FF00F0603AE69EF3F65
:107ECD00F06BEF3FF041EF3FF0000E0E6E10AE7213
:107EDD00EF3FF074EF3FF08CEF3FF010C009F07FF3
:107EED000E0916D8B47DEF3FF07FEF3FF083EF3FE3
:107EFD00F0010E0E6E8CEF3FF001A088EF3FF08A7F
:107F0D00EF3FF08CEF3FF07FEF3FF00E50D8B49283
:107F1D00EF3FF094EF3FF0BFEF3FF0010E01260071
:107F2D000E02220322042204A09FEF3FF0A1EF3F97
:107F3D00F0BFEF3FF001C009F002C00AF003C00B23
:107F4D00F004C00CF00C340C320B320A3209320939
:107F5D00C001F00AC002F00BC003F00CC004F00F1A
:107F6D0028D8B4BCEF3FF0BEEF3FF0BFEF3FF00FAE
:107F7D002A0F28D8B4C5EF3FF0C7EF3FF0CFEF3F42
:107F8D00F00F50D8A4CDEF3FF0CFEF3FF0E1EF3F32
:107F9D00F0000E016E000E026E000E036E000E0458
:107FAD006E0F50D8A4DDEF3FF0DFEF3FF0E1EF3F74
:107FBD00F0000E0D6E0FA0E6EF3FF0E8EF3FF0EB97
:107FCD00EF3FF0038EECEF3FF0039ED8900F30049F
:107FDD006E0DAEF4EF3FF0F6EF3FF0F7EF3FF0042C
:107FED008E01C001F002C002F003C003F004C00412
:037FFD00F012007F
:020000040020DA
:08000000FFFFFFFFFFFFFFFF00
:020000040030CA
:0E00000000051F1EFF8185FF0FC00FE00F409F
:00000001FF
