:040000000FEF3FF0CF
:107E1C0001001C0EF66E7E0EF76E000EF86E090059
:107E2C00F5CF0BF00900F5CF0CF00A6A096A0001D6
:107E3C0082EF3FF0000E066E04BE29EF3FF027EFF5
:107E4C003FF02FEF3FF0036C041ED8B0042A010E54
:107E5C00066E02BE36EF3FF034EF3FF03CEF3FF0E2
:107E6C00016C021ED8B0022A010E061A000E086E12
:107E7C00000E076E03500410D8B447EF3FF049EFE3
:107E8C003FF071EF3FF0010E056E51EF3FF0D890CF
:107E9C0003360436052A04AE56EF3FF058EF3FF098
:107EAC004DEF3FF0D890073608360350015C045074
:107EBC000258D8A064EF3FF066EF3FF06BEF3FF055
:107ECC000350015E0450025A0780D89004320332EA
:107EDC00052E58EF3FF00650D8B477EF3FF079EF0E
:107EEC003FF07DEF3FF0076C081ED8B0082A07C0A2
:107EFC0001F008C002F012000B0EBA6EB196B19CE4
:107F0C000B0ECF6EDC0ECE6EBB68BC68F10ECD6E68
:107F1C009492F00E936E010E816EA1A098EF3FF03B
:107F2C009AEF3FF0E1EF3FF009500A10D8A4A1EF0F
:107F3C003FF0A3EF3FF0BCEF3FF0D8900B340B6E4B
:107F4C000C340C6E0CBEB4EF3FF00C5009E1090E72
:107F5C000B5CD8A0B4EF3FF0B6EF3FF0DEEF3FF094
:107F6C00000E0C6E010E0B6EDEEF3FF00CBEC8EF78
:107F7C003FF00C5009E1020E0B5CD8A0C8EF3FF0AB
:107F8C00CAEF3FF0DAEF3FF00BC001F00CC002F08B
:107F9C00000E046E020E036E20EC3FF001C00BF0DD
:107FAC0002C00CF0DEEF3FF0000E0C6E080E0B6EF4
:107FBC000BC081FFA19081B8E6EF3FF0E8EF3FF0F6
:107FCC0093EF3FF009500A10D8A4EFEF3FF0F1EF18
:107FDC003FF0F7EF3FF0000E0A6E010E096EFBEF5B
:107FEC003FF0000E0A6E000E096E00F093EF3FF0AA
:047FFC0000EF00F0A2
:020000040020DA
:08000000FFFFFFFFFFFFFFFF00
:020000040030CA
:0E00000000051F1EFF8185FF0FC00FE00F409F
:00000001FF
