:0400000057EF35F091
:106A6300303030380C0601000E956E000E966E1213
:106A730000016E848201C083FF100EE82EFED70052
:106A8300D08492100EE82EFED700D0120084948496
:106A930082010E836E100EE82EFED700D084921072
:106AA3000EE82EFED700D084841200630EF66E6AC1
:106AB3000EF76E000EF86E00EE2FF010EE07F009E1
:106AC30000F5CFEEFFE550E150FAE1396A386A3755
:106AD3006A366A0001BAEF35F0000E151A000E1679
:106AE3001A000E171A800E181A11C001F012C002F4
:106AF300F013C003F014C004F015C005F016C0066F
:106B0300F017C007F018C008F0A0EC3DF001C01169
:106B1300F002C012F003C013F004C014F01200849A
:106B23009420EE2FF010EE01F0060EDBCFE3FFE82A
:106B330006FCE2000E086E8482010E0824D96EDA88
:106B43006A000EDA22DF50836E100EE82EFED700A5
:106B5300D08492100EE82EFED700D0082A060E0825
:106B630064B6EF35F0B8EF35F09DEF35F08484125D
:106B73000035EC35F091EC35F0010EC26E0E0EC10E
:106B83006EAC0EC06E000E936EC28207EF36F0C479
:106B9300502C6E2B6AC3502B242D6E000E2C202EEE
:106BA3006E2EBEDEEF35F0F50E2D5C010E2E58D89D
:106BB300A0DEEF35F0E0EF35F0E3EF35F08188E468
:106BC300EF35F0819848EC35F02DC001F02EC0026E
:106BD300F0000E02BEFF0E036E046E010EDBEC37F7
:106BE300F001C01AF002C01BF003C01CF004C01D6A
:106BF300F0000E1F6E020E1E6E17EC37F0820E2B86
:106C03006EDE0EE82EFED72B2EFCD7C2B20CEF366B
:106C1300F00EEF36F0C9EF35F0C6EF35F000EF00B8
:106C2300F0000E0114096E000E02140A6E800E03AA
:106C3300140B6E7F0E04140C6E09500A100B100C0B
:106C430010D8A427EF36F029EF36F031EF36F000F5
:106C53000E016E000E026E000E036E000E046E0037
:106C63000E0514096E000E06140A6E800E07140B2F
:106C73006E7F0E08140C6E09500A100B100C10D8FE
:106C8300A446EF36F048EF36F050EF36F0000E052D
:106C93006E000E066E000E076E000E086E04AE55F3
:106CA300EF36F057EF36F060EF36F0016C021ED886
:106CB300B0022A031ED8B0032A800E045608AE651C
:106CC300EF36F067EF36F070EF36F0056C061ED83E
:106CD300B0062A071ED8B0072A800E0856000E01F8
:106CE3001A000E021A000E031A800E041A000E0573
:106CF3001A000E061A000E071A800E081A05500114
:106D03005C065002580750035808500458D8B08DF9
:106D1300EF36F08FEF36F092EF36F0D89093EF36F0
:106D2300F0D8801200033404340A6E0A50D8A49DAC
:106D3300EF36F09FEF36F0A9EF36F0000E016E004C
:106D43000E026E000E036E000E046E16EF37F00196
:106D5300C005F002C006F003C007F004C008F0202D
:106D63000EB9EF36F0D8900832073206320532E812
:106D73002EB4EF36F00550096E038EFF0E0116FF99
:106D83000E0216FF0E0316000E0416960E0A5E0A76
:106D9300BED0EF36F0CEEF36F0E6EF36F00A508095
:106DA3000A970FD8B0D8EF36F0DAEF36F0DCEF36CB
:106DB300F09FEF36F0D89004320332023201320AE8
:106DC3003EDCEF36F0FEEF36F01F0E0A64ECEF36D2
:106DD300F0EEEF36F0F6EF36F09FEF36F0D8900195
:106DE300360236033604360A060A50D8A4FCEF36B8
:106DF300F0FEEF36F0F0EF36F00950D8B404EF3779
:106E0300F006EF37F00EEF37F0041E031E021E01EB
:106E13006C000E02220322042201C001F002C00210
:106E2300F003C003F004C004F01200000E2A6E0049
:106E33000E296E38EF37F01AC001F01BC002F01CA8
:106E4300C003F01DC004F0000E056E000E066E2098
:106E53000E076E410E086EBEEC39F001C01AF00247
:106E6300C01BF003C01CF004C01DF02A2A1AC00185
:106E7300F01BC002F01CC003F01DC004F0000E059F
:106E83006E000E066E800E076E3F0E086E12EC3615
:106E9300F0D8B04FEF37F051EF37F01DEF37F02A4E
:106EA30050D8A457EF37F059EF37F0C2EF37F0302F
:106EB3000E3AEC35F02E0E3AEC35F0C2EF37F029EE
:106EC3002A1AC001F01BC002F01CC003F01DC0044D
:106ED300F0000E056E000E066E200E076E410E08C2
:106EE3006E8BEC3BF001C01AF002C01BF003C01C18
:106EF300F004C01DF01AC001F01BC002F01CC00357
:106F0300F01DC004F0B5EC38F001C025F002C02636
:106F1300F003C027F004C028F01AC011F01BC01200
:106F2300F01CC013F01DC014F025C015F026C016C8
:106F3300F027C017F028C018F06EEC35F011C01A16
:106F4300F012C01BF013C01CF014C01DF025C001CB
:106F5300F026C002F027C003F028C004F094EC36FA
:106F6300F00150300F3AEC35F02A502918D8A4BD5F
:106F7300EF37F0BFEF37F0C2EF37F02E0E3AEC35B4
:106F8300F02A501E24206E000E1F20216E2950224D
:106F93006E236A2050225C2350800A246E21508085
:106FA3000A2458D8A0D8EF37F0DAEF37F061EF377B
:106FB300F01200096E0950D8B4E2EF37F0E4EF376E
:106FC300F006EF38F004BEEBEF37F0E9EF37F006E9
:106FD300EF38F001C005F002C006F003C007F0046B
:106FE300C008F0051E061E071E081E052A000E0611
:106FF300220722082205C00BF006C00CF007C00DC3
:10700300F008C00EF00EEF38F001C00BF002C00C18
:10701300F003C00DF004C00EF00150021003100481
:1070230010D8A417EF38F019EF38F023EF38F00039
:107033000E016E000E026E000E036E000E046EB49F
:10704300EF38F0960E0A6E2DEF38F00A2AD8900E1C
:10705300320D320C320B32000E0B14056E000E0C87
:1070630014066E000E0D14076EFE0E0E14086E0548
:1070730050061007100810D8A442EF38F044EF3838
:10708300F027EF38F052EF38F00A2A010E0B2600F2
:107093000E0C220D220E22D8900E320D320C320B22
:1070A30032000E0B14056E000E0C14066E000E0D4E
:1070B30014076EFF0E0E14086E0550061007100815
:1070C30010D8A467EF38F069EF38F046EF38F07165
:1070D300EF38F00A06D8900B360C360D360E360D07
:1070E300BE76EF38F078EF38F080EF38F0020E0A12
:1070F300607EEF38F080EF38F06BEF38F00AB08540
:10710300EF38F087EF38F088EF38F00D9ED8900A0B
:10711300320AC005F0066A076A086A05C008F00764
:107123006A066A056A05500B1206500C1207500DC9
:107133001208500E120950D8B4A2EF38F0A4EF3859
:10714300F0ACEF38F004BEABEF38F0A9EF38F0AC99
:10715300EF38F00E8E0BC001F00CC002F00DC0032F
:10716300F00EC004F0120036C011F037C012F03830
:10717300C013F039C014F001C011F002C012F003C3
:10718300C013F004C014F0810E056EFF0E066E11DD
:10719300C007F012C008F013C009F014C00AF018B9
:1071A3000ED9EF38F0D8900A32093208320732E8A4
:1071B3002ED4EF38F0075005240F6E000E06201072
:1071C3006E10BEEEEF38F0105009E1170E0F5CD8C9
:1071D300A0EEEF38F0F0EF38F0FAEF38F001C0012D
:1071E300F002C002F003C003F004C004F0BDEF39A5
:1071F300F010BEFFEF38F001EF39F071EF39F00F07
:10720300C005F0FF0E066EFF0E076E7F0E086E00C0
:107213000E096E056610EF39F018EF39F0093409DD
:1072230032083207320632052E0BEF39F006C00B57
:10723300F007C00CF008C00DF009C00EF00B5011A0
:1072430014056E0C501214066E0D501314076E0EB7
:10725300501414086E0550061007100810D8A435F2
:10726300EF39F037EF39F039EF39F0F0EF38F0114B
:10727300C005F012C006F013C007F014C008F020D8
:107283000E49EF39F0D8900832073206320532E85A
:107293002E44EF39F00550061007100810D8B455E6
:1072A300EF39F057EF39F05FEF39F00B5011260C3F
:1072B3005012220D5013220E5014220B1C056E0C7B
:1072C3001C066E0D1C076E0E1C086E05501116066B
:1072D3005012160750131608501416B5EF39F01153
:1072E300C005F012C006F013C007F014C008F02068
:1072F3000E81EF39F0D8900832073206320532E8B2
:107303002E7CEF39F00550061007100810D8A48D15
:10731300EF39F08FEF39F099EF39F0000E116E006D
:107323000E126E000E136E000E146EB5EF39F0D808
:10733300901134056E1234066E1334076E1434083C
:107343006E0550061007100810D8B4ABEF39F0AD36
:10735300EF39F0B5EF39F0000E116E000E126E80AA
:107363000E136EBF0E146E11C001F012C002F013A3
:10737300C003F014C004F012000450800B116E041B
:10738300500424186E03AEC9EF39F0CBEF39F0CCBB
:10739300EF39F018801850D8B4D2EF39F0D4EF3960
:1073A300F0E9EF39F01828D8A4DAEF39F0DCEF3937
:1073B300F0E4EF39F0000E016E000E026E000E03D2
:1073C3006E000E046E038E000E046EF1EF39F000B2
:1073D3000E016E000E026E000E036E000E046E08A8
:1073E30050800B111A08500824196E07AEFCEF39B0
:1073F300F0FEEF39F0FFEF39F019801950D8B405DA
:10740300EF3AF007EF3AF01CEF3AF01928D8A40D41
:10741300EF3AF00FEF3AF017EF3AF0000E056E0077
:107423000E066E000E076E000E086E078E000E0825
:107433006E24EF3AF0000E056E000E066E000E0786
:107443006E000E086E0550061007100810D8A42D04
:10745300EF3AF02FEF3AF047EF3AF0000E016E00EB
:107463000E026E000E036E000E046E800E03127F7A
:107473000E04121150041201C001F002C002F00305
:10748300C003F004C004F08AEF3BF01850D8A44DB9
:10749300EF3AF04FEF3AF059EF3AF0000E016E0079
:1074A3000E026E000E036E000E046E8AEF3BF0199F
:1074B3005018C009F00A6A095E000E0A5A7F0E09C5
:1074C30024126E000E0A20136E01C00DF002C00ECE
:1074D300F003C00FF004C010F0000E016E000E02A6
:1074E3006E000E036E000E046E000E146E000E1579
:1074F3006E000E166E000E176E000E196EBAEF3A7E
:10750300F01950D8B488EF3AF08AEF3AF0A1EF3A85
:10751300F0D8900D360E360F361036D8900136025D
:10752300360336043617AE99EF3AF09BEF3AF09CE8
:10753300EF3AF00180D89014361536163617360513
:10754300500D5C06500E5807500F5808501058D86D
:10755300A0AEEF3AF0B0EF3AF0B9EF3AF0178C057E
:10756300500D5E06500E5A07500F5A0850105A1904
:107573002A190E1964C0EF3AF0C2EF3AF082EF3ADB
:10758300F00D500E100F101010D8B4CBEF3AF0CD11
:10759300EF3AF0E5EF3AF01480E5EF3AF0D89001D6
:1075A3003602360336043617AEDAEF3AF0DCEF3A3A
:1075B300F0DDEF3AF00180D8901436153616361701
:1075C300361206D8A0130603AEEAEF3AF0ECEF3A10
:1075D300F0D0EF3AF0000E196E17AEF3EF3AF0F574
:1075E300EF3AF019EF3BF0FF0E1414096EFF0E157E
:1075F300140A6EFF0E16140B6E7F0E17140C6E0911
:10760300500A100B100C10D8B40AEF3BF00CEF3BF0
:10761300F010EF3BF0010E196E19EF3BF001A015CE
:10762300EF3BF017EF3BF019EF3BF00CEF3BF0199A
:1076330050D8B41FEF3BF021EF3BF045EF3BF00197
:107643000E0126000E02220322042204A02CEF3B8B
:10765300F02EEF3BF045EF3BF001C009F002C00A0A
:10766300F003C00BF004C00CF00C340C320B320AE4
:1076730032093209C001F00AC002F00BC003F00C5A
:10768300C004F0124A132A13BE50EF3BF013500804
:10769300E11228D8A050EF3BF052EF3BF05DEF3BF7
:1076A300F0000E136E1268000E016E000E026E00E3
:1076B3000E036E000E046E13BE6AEF3BF01350060A
:1076C300E11204D8B068EF3BF06AEF3BF078EF3B90
:1076D300F0000E136E000E126E000E016E000E020D
:1076E3006E000E036E000E046E000E116E12C018B3
:1076F300F018A07FEF3BF081EF3BF084EF3BF0030A
:107703008E85EF3BF0039ED8901830046E3BEF3A22
:10771300F012000450800B0D6E04500424136E030A
:10772300AE96EF3BF098EF3BF099EF3BF0138013ED
:1077330050D8B49FEF3BF0A1EF3BF0B4EF3BF01315
:1077430028D8A4A7EF3BF0A9EF3BF0B1EF3BF00043
:107753000E016E000E026E000E036E000E046E0329
:107763008EBCEF3BF0000E016E000E026E000E03A6
:107773006E000E046E0850800B0D1A085008241278
:107783006E07AEC7EF3BF0C9EF3BF0CAEF3BF01219
:10779300801250D8B4D0EF3BF0D2EF3BF0E5EF3B93
:1077A300F01228D8A4D8EF3BF0DAEF3BF0E2EF3B3E
:1077B300F0000E056E000E066E000E076E000E083A
:1077C3006E078EEDEF3BF0000E056E000E066E00A9
:1077D3000E076E000E086E1250D8B4F3EF3BF0F5AF
:1077E300EF3BF0FDEF3BF01350D8A4FBEF3BF0FD74
:1077F300EF3BF007EF3CF0000E016E000E026E004F
:107803000E036E000E046E9FEF3DF007500102F36E
:10781300CF18F0F4CF19F018500E6E0F6A106A11DA
:107823006A1950146E156A166A176A06500202F333
:10783300CF18F0F4CF19F018500E26000E0F2210B7
:1078430022112219501426000E1522162217220582
:10785300500302F3CF18F0F4CF19F018500E26009E
:107863000E0F221022112219501426000E15221673
:1078730022172210C011F00FC010F00EC00FF00E2F
:107883006A05500202F3CF18F0F4CF19F018500E26
:107893002619500F22000E1022000E11220650014D
:1078A30002F3CF18F0F4CF19F018500E2619500F29
:1078B30022000E1022000E112210C011F00FC01072
:1078C300F00EC00FF00E6A05500102F3CF18F0F46A
:1078D300CF19F018500E2619500F22000E10220057
:1078E3000E112207500202F3CF18F0F4CF19F0184B
:1078F30050142619501522000E1622000E172206C8
:10790300500302F3CF18F0F4CF19F01850142619CE
:10791300501522000E1622000E172207500302F301
:10792300CF18F0F4CF19F01850096E19500A6E0BE6
:107933006A0C6A0BC00CF00AC00BF009C00AF0090C
:107943006A095014260A5015220B5016220C5017A0
:10795300220EC009F00FC00AF010C00BF011C00CCA
:10796300F0190EBAEF3CF0D8900C320B320A320900
:1079730032E82EB5EF3CF0095014260A5015220BBD
:107983005016220C50172210C011F00FC010F00E29
:10799300C00FF00E6A125013C009F00A6A092600DC
:1079A3000E0A22820E0924186EFF0E0A20196EF0A9
:1079B300EF3CF0D890143615361636173611AEE56F
:1079C300EF3CF0E7EF3CF0E8EF3CF01480D8900E8A
:1079D300360F36103611361806D8A0190616AEF52E
:1079E300EF3CF0F7EF3CF0DBEF3CF0000E126E11D2
:1079F300AEFEEF3CF000EF3DF024EF3DF0FF0E0E46
:107A030014096EFF0E0F140A6EFF0E10140B6E7F17
:107A13000E11140C6E09500A100B100C10D8B4156B
:107A2300EF3DF017EF3DF01BEF3DF0010E126E241A
:107A3300EF3DF014A020EF3DF022EF3DF024EF3DA9
:107A4300F017EF3DF01250D8B42AEF3DF02CEF3D84
:107A5300F050EF3DF0010E1426000E1522162217EA
:107A63002217A037EF3DF039EF3DF050EF3DF01412
:107A7300C009F015C00AF016C00BF017C00CF00CCB
:107A8300340C320B320A32093209C014F00AC01521
:107A9300F00BC016F00CC017F0184A192A19BE5B78
:107AA300EF3DF0195008E11828D8A05BEF3DF05DD9
:107AB300EF3DF067EF3DF0000E146E000E156E8083
:107AC3000E166E7F0E176E95EF3DF019BE74EF3DE7
:107AD300F0195006E11804D8B072EF3DF074EF3D91
:107AE300F080EF3DF0000E146E000E156E000E16C2
:107AF3006E000E176E000E0D6E95EF3DF018C0135D
:107B0300F0FF0E1416FF0E15167F0E1616000E1735
:107B13001613A08FEF3DF091EF3DF092EF3DF0167D
:107B23008ED8901330176E0D50171214C001F01534
:107B3300C002F016C003F017C004F0120004508016
:107B43000B0D6E045004240F6E03AEABEF3DF0AD8E
:107B5300EF3DF0AEEF3DF00F800F50D8B4B4EF3DE2
:107B6300F0B6EF3DF0CBEF3DF00F28D8A4BCEF3DCE
:107B7300F0BEEF3DF0C6EF3DF0000E016E000E02C9
:107B83006E000E036E000E046E038E000E046ED3A1
:107B9300EF3DF0000E016E000E026E000E036E004C
:107BA3000E046E0850800B0E6E0D500E18D8B4DD07
:107BB300EF3DF0DFEF3DF0E0EF3DF00D8C085008B6
:107BC300240E6E07AEE8EF3DF0EAEF3DF0EBEF3D3C
:107BD300F00E800E50D8B4F1EF3DF0F3EF3DF00816
:107BE300EF3EF00E28D8A4F9EF3DF0FBEF3DF00394
:107BF300EF3EF0000E056E000E066E000E076E00DF
:107C03000E086E078E000E086E10EF3EF0000E0594
:107C13006E000E066E000E076E000E086E0F500EFD
:107C23005CD8B017EF3EF019EF3EF040EF3EF00D99
:107C3300AC1EEF3EF020EF3EF022EF3EF0800E0D43
:107C43001A0FC010F00EC00FF010C00EF001C010DC
:107C5300F005C001F010C005F002C010F006C0022C
:107C6300F010C006F003C010F007C003F010C00707
:107C7300F004C010F008C004F010C008F0000E10AB
:107C83006E0F500EC009F00A6A095E000E0A5A0A06
:107C9300BE55EF3EF00A5009E11A0E095CD8A05513
:107CA300EF3EF057EF3EF08EEF3EF001500210032F
:107CB300100410D8A460EF3EF063EF3EF0010E64B1
:107CC300EF3EF0000E106E000E016E000E026E000D
:107CD3000E036E000E046E0EC00FF097EF3EF01011
:107CE300A076EF3EF078EF3EF07EEF3EF0D89010B6
:107CF300300109106E80EF3EF0D890103201A0855C
:107D0300EF3EF087EF3EF088EF3EF0108E04340430
:107D1300320332023201320F2A0E500F5CD8A09583
:107D2300EF3EF097EF3EF071EF3EF00DBC9CEF3E5F
:107D3300F09EEF3EF0DEEF3EF00F50D8A4A4EF3EEE
:107D4300F0A6EF3EF0B0EF3EF0000E016E000E0223
:107D53006E000E036E000E046EFFEF3FF005500140
:107D63002606500222075003220850042204A0BD15
:107D7300EF3EF0BFEF3EF06BEF3FF010A0C4EF3EDD
:107D8300F0C6EF3EF0CCEF3EF0D890103001091072
:107D93006ECEEF3EF0D890103201A0D3EF3EF0D577
:107DA300EF3EF0D6EF3EF0108E043404320332027D
:107DB3003201320F2A6BEF3FF00550015C0650028F
:107DC30058075003580450800A096E0850800A0966
:107DD30058D8B0EFEF3EF0F1EF3EF01CEF3FF0016B
:107DE30050055C096E025006580A6E035007580B83
:107DF3006E045008580C6EFF0E0924016EFF0E0A24
:107E030020026EFF0E0B20036EFF0E0C20046E800B
:107E13000E0D1A106C1050D8A412EF3FF014EF3F60
:107E2300F024EF3FF0010E0126000E02220322048C
:107E33002224EF3FF00550015E0650025A0750031B
:107E43005A0850045A0150021003100410D8A42DEC
:107E5300EF3FF02FEF3FF064EF3FF01050D8A43521
:107E6300EF3FF037EF3FF064EF3FF0000E016E009D
:107E73000E026E000E036E000E046EFFEF3FF0D88D
:107E830090013602360336043610AE4BEF3FF04D09
:107E9300EF3FF04EEF3FF0018010A053EF3FF0555E
:107EA300EF3FF059EF3FF0D88010365BEF3FF0D84B
:107EB3009010360F50D8B461EF3FF063EF3FF0649A
:107EC300EF3FF00F0603AE69EF3FF06BEF3FF0417A
:107ED300EF3FF0000E0E6E10AE72EF3FF074EF3F07
:107EE300F08CEF3FF010C009F07F0E0916D8B47D77
:107EF300EF3FF07FEF3FF083EF3FF0010E0E6E8C0C
:107F0300EF3FF001A088EF3FF08AEF3FF08CEF3FA7
:107F1300F07FEF3FF00E50D8B492EF3FF094EF3F75
:107F2300F0BFEF3FF0010E0126000E0222032204F0
:107F33002204A09FEF3FF0A1EF3FF0BFEF3FF0011E
:107F4300C009F002C00AF003C00BF004C00CF00C2F
:107F5300340C320B320A32093209C001F00AC00272
:107F6300F00BC003F00CC004F00F28D8B4BCEF3FF3
:107F7300F0BEEF3FF0BFEF3FF00F2A0F28D8B4C594
:107F8300EF3FF0C7EF3FF0CFEF3FF00F50D8A4CD56
:107F9300EF3FF0CFEF3FF0E1EF3FF0000E016E0057
:107FA3000E026E000E036E000E046E0F50D8A4DD99
:107FB300EF3FF0DFEF3FF0E1EF3FF0000E0D6E0F0C
:107FC300A0E6EF3FF0E8EF3FF0EBEF3FF0038EEC7E
:107FD300EF3FF0039ED8900F30046E0DAEF4EF3FE9
:107FE300F0F6EF3FF0F7EF3FF0048E01C001F0022F
:0D7FF300C002F003C003F004C004F012004F
:020000040020DA
:08000000FFFFFFFFFFFFFFFF00
:020000040030CA
:0E00000000051F1EFF8185FF0FC00FE00F409F
:00000001FF
