:020000040000FA
:0400000085EF0BF08D
:07080000002564003A00002E
:100808001EC036F01FC037F020C038F021C039F0C4
:1008180022C03AF023C03BF024C03CF025C03DF094
:100828003DBE19EF04F01CEF04F0010E1DEF04F0BB
:10083800000E346E356A34503510D8B426EF04F003
:1008480028EF04F038EF04F03D1E3C1E3B1E3A1E14
:10085800391E381E371E366C000E372238223922D0
:100868003A223B223C223D22000165BF3EEF04F0C4
:1008780040EF04F041EF04F0669365BF4EEF04F0DB
:10088800655106E16405D8B04CEF04F04EEF04F072
:1008980054EF04F0000E316E010E306E58EF04F084
:1008A80064C030F065C031F062C032F063C033F02C
:1008B80034503510D8A463EF04F065EF04F06CEF02
:1008C80004F066A56AEF04F06CEF04F06FEF04F033
:1008D8003206D8A03306000E3F6E1F0E3E6E000E85
:1008E800906FF3EF04F03E06D8A03F06710E3E2449
:1008F800D96E000E3F20DA6E36C001F037C002F024
:1009080038C003F039C004F03AC005F03BC006F027
:100918003CC007F03DC008F00A0E096E000E0A6ED2
:10092800000E0B6E000E0C6E000E0D6E000E0E6E9D
:10093800000E0F6E000E106E13EC07F001C026F0CB
:1009480002C027F003C028F004C029F005C02AF02F
:1009580006C02BF007C02CF008C02DF026C013F0FD
:1009680028C014F04AEC0BF01350300FDF6E30063D
:10097800D8A031063206D8A0330636C001F037C0F9
:1009880002F038C003F039C004F03AC005F03BC0AB
:1009980006F03CC007F03DC008F00A0E096E000ED4
:1009A8000A6E000E0B6E000E0C6E000E0D6E000E21
:1009B8000E6E000E0F6E000E106E4FEC06F001C0AA
:1009C80036F002C037F003C038F004C039F005C073
:1009D8003AF006C03BF007C03CF008C03DF03FBE0F
:1009E800FEEF04F03F5008E13E04D8A0FEEF04F00B
:1009F80000EF05F031EF05F0365037103810391098
:100A08003A103B103C103D10D8A40DEF05F00FEF45
:100A180005F077EF04F031BE1CEF05F0315006E128
:100A28003004D8B01AEF05F01CEF05F077EF04F0AA
:100A380033BE27EF05F0335008E13204D8A027EF82
:100A480005F029EF05F031EF05F0000166B32FEF4F
:100A580005F031EF05F077EF04F034503510D8A4E5
:100A680038EF05F03AEF05F042EF05F0000166A512
:100A780040EF05F042EF05F060EF05F03E06D8A024
:100A88003F0634503510D8A44CEF05F04EEF05F072
:100A980054EF05F0000E2F6E2B0E2E6E58EF05F05A
:100AA800000E2F6E2D0E2E6E710E3E24D96E000E86
:100AB8003F20DA6E2EC0DFFF1CC011F01DC012F0FF
:100AC800710E3E24136E000E3F20146E32C015F0D6
:100AD80033C016F02AEC08F011C01CF012C01DF04B
:100AE800120042C0D9FF43C0DAFFDECFF6FFDDCFE8
:100AF800F7FF0800F550250AD8A485EF05F087EF21
:100B080005F033EF06F042C0D9FF43C0DAFFDE2A12
:100B1800000EDD22000E0001636F000E626F62C0DE
:100B280066F063C067F06469656942C0D9FF43C075
:100B3800DAFFDECFF6FFDDCFF7FF0800F550640AD5
:100B4800D8B4A9EF05F0ABEF05F0BDEF05F042C052
:100B5800D9FF43C0DAFFDECFF6FFDDCFF7FF08008D
:100B6800F550690AD8A4BBEF05F0BDEF05F0FDEF1D
:100B780005F042C0D9FF43C0DAFFDE2A000EDD22AD
:100B880044C0D9FF45C0DAFFDFCF46F0020EDE26AB
:100B9800DFCF47F0000EDD2246C0D9FF47C0DAFF9D
:100BA800DECF48F0DDCF49F0000E49BEFF0E4A6E99
:100BB8004B6E4C6E4D6E4E6E4F6E40C01CF041C079
:100BC8001DF048C01EF049C01FF04AC020F04BC0BD
:100BD80021F04CC022F04DC023F04EC024F04FC08D
:100BE80025F004EC04F01CC040F01DC041F04EEFAD
:100BF80006F042C0D9FF43C0DAFFDECFF6FFDDCFF3
:100C0800F7FF0800F550250AD8A40DEF06F00FEFFE
:100C180006F026EF06F042C0D9FF43C0DAFFDE2A0D
:100C2800000EDD22000E026E250E016E40C003F09C
:100C380041C004F0C5EC07F0000E416E010E406E95
:100C48004EEF06F042C0D9FF43C0DAFFDE2A000E9D
:100C5800DD22000E416E000E406E4EEF06F042C0DF
:100C6800D9FF43C0DAFFDECFF6FFDDCFF7FF08007C
:100C7800F550016E026A40C003F041C004F0C5ECB3
:100C880007F042C0D9FF43C0DAFFDE2A000EDD229A
:100C980020EF06F01200000E126E10BE58EF06F09C
:100CA80056EF06F06AEF06F0101E0F1E0E1E0D1E00
:100CB8000C1E0B1E0A1E096C000E0A220B220C22A7
:100CC8000D220E220F221022010E126E08BE71EFA5
:100CD80006F06FEF06F083EF06F0081E071E061EEB
:100CE800051E041E031E021E016C000E02220322B2
:100CF80004220522062207220822010E121A20EEDB
:100D080013F0070EDE6AE806FDE209500A100B1020
:100D18000C100D100E100F101010D8B496EF06F02E
:100D280098EF06F0EAEF06F0010E116EA6EF06F056
:100D3800D89009360A360B360C360D360E360F3675
:100D48001036112A10AEABEF06F0ADEF06F09CEFAF
:100D580006F0D89013361436153616361736183668
:100D680019361A360950015C0A5002580B500358BC
:100D78000C5004580D5005580E5006580F5007587F
:100D880010500858D8A0CBEF06F0CDEF06F0DEEFF4
:100D980006F00950015E0A50025A0B50035A0C50D3
:100DA800045A0D50055A0E50065A0F50075A105043
:100DB800085A1380D89010320F320E320D320C328E
:100DC8000B320A320932112EADEF06F01250D8B4A8
:100DD800F0EF06F0F2EF06F002EF07F01A1E191E08
:100DE800181E171E161E151E141E136C000E142234
:100DF800152216221722182219221A2213C001F0CE
:100E080014C002F015C003F016C004F017C005F0B6
:100E180018C006F019C007F01AC008F01200000E3A
:100E2800126E08BE1CEF07F01AEF07F02EEF07F05E
:100E3800081E071E061E051E041E031E021E016C48
:100E4800000E02220322042205220622072208227B
:100E5800010E126E10BE35EF07F033EF07F045EFC5
:100E680007F0101E0F1E0E1E0D1E0C1E0B1E0A1E56
:100E7800096C000E0A220B220C220D220E220F22D0
:100E8800102209500A100B100C100D100E100F1024
:100E98001010D8B452EF07F054EF07F09CEF07F0AA
:100EA800010E116E62EF07F0D89009360A360B363C
:100EB8000C360D360E360F361036112A10AE67EF87
:100EC80007F069EF07F058EF07F00950015C0A5086
:100ED80002580B5003580C5004580D5005580E502A
:100EE80006580F50075810500858D8A07EEF07F042
:100EF80080EF07F090EF07F00950015E0A50025AA0
:100F08000B50035A0C50045A0D50055A0E50065AED
:100F18000F50075A1050085AD89010320F320E321C
:100F28000D320C320B320A320932112E69EF07F0FA
:100F38001250D8B4A2EF07F0A4EF07F0B4EF07F00F
:100F4800081E071E061E051E041E031E021E016C37
:100F5800000E02220322042205220622072208226A
:100F680001C001F002C002F003C003F004C004F0A5
:100F780005C005F006C006F007C007F008C008F075
:100F8800120003500410D8B4CCEF07F0CEEF07F0EE
:100F9800D7EF07F003500410D8A4D5EF07F0D7EF28
:100FA80007F0DCEF07F0015010EC0CF029EF08F027
:100FB80020EE04F00350D9260450DA22DE50DE1069
:100FC800D8B4E9EF07F0EBEF07F006EF08F020EEF2
:100FD80004F00350D9260450DA2210EE02F0035030
:100FE800E1260450E222DE50E65CE650800A096EF3
:100FF800DE50800A0958D8B004EF08F006EF08F070
:1010080029EF08F020EE02F00350D9260450DA2226
:10101800DECF05F0DDCF06F003C0D9FF04C0DAFF4C
:10102800DECF07F0DDCF08F005500724D96E065053
:101038000820DA6E01C0DFFF20EE02F00350D92647
:101048000450DA22DE2A000EDD221200000166A119
:1010580030EF08F032EF08F03CEF08F013C00AF068
:1010680014C00BF011C00CF012C00DF028EC0BF0FE
:1010780016BE41EF08F043EF08F049EF08F015C03D
:101088001AF016C01BF04DEF08F0000E1B6E000E94
:101098001A6E000E196E000E186E5FEF08F0000E43
:1010A800026E200E016E11C003F012C004F0C5ECF0
:1010B80007F0184A192A1A50185C1950800A176E36
:1010C8001B50800A1758D8A06CEF08F06EEF08F094
:1010D80053EF08F0000166B174EF08F076EF08F0FE
:1010E80080EF08F013C00AF014C00BF011C00CF028
:1010F80012C00DF028EC0BF013C001F014C002F080
:101108006AEC0BF01A500124116E1B500220126E6B
:101118001200000E066E04BE96EF08F094EF08F079
:101128009CEF08F0036C041ED8B0042A010E066E6A
:1011380002BEA3EF08F0A1EF08F0A9EF08F0016CD8
:10114800021ED8B0022A010E061A000E086E000E02
:10115800076E03500410D8B4B4EF08F0B6EF08F0E7
:10116800DEEF08F0010E056EBEEF08F0D8900336EA
:101178000436052A04AEC3EF08F0C5EF08F0BAEF4D
:1011880008F0D890073608360350015C045002581E
:10119800D8A0D1EF08F0D3EF08F0D8EF08F003504B
:1011A800015E0450025A0780D89004320332052E9B
:1011B800C5EF08F00650D8B4E4EF08F0E6EF08F001
:1011C800EAEF08F0076C081ED8B0082A07C001F03B
:1011D80008C002F01200000E066E02BEF8EF08F01A
:1011E800F6EF08F0FEEF08F0016C021ED8B0022AF4
:1011F800010E066E04BE05EF09F003EF09F009EFD2
:1012080009F0036C041ED8B0042A03500410D8B4A3
:1012180010EF09F012EF09F036EF09F0010E056E34
:101228001AEF09F0D89003360436052A04AE1FEFEA
:1012380009F021EF09F016EF09F00350015C0450A2
:101248000258D8A02AEF09F02CEF09F030EF09F086
:101258000350015E0450025AD89004320332052E1E
:1012680021EF09F00650D8B43CEF09F03EEF09F041
:1012780042EF09F0016C021ED8B0022A01C001F049
:1012880002C002F01200076E07C0A2F0000EBCEC0C
:101298000BF00A0E066EBC0EE82EFED7062EFCD703
:1012A80000D0030ED9EC0BF0FA0E00D0E82EFDD7D3
:1012B800030ED9EC0BF0FA0E00D0E82EFDD7030E82
:1012C800D9EC0BF0FA0E00D0E82EFDD7020ED9ECBF
:1012D8000BF0FA0E00D0E82EFDD7280ED9EC0BF053
:1012E800110E066E3A0EE82EFED7062EFCD700D059
:1012F8000C0ED9EC0BF0110E066E3A0EE82EFED746
:10130800062EFCD700D0010ED9EC0BF0110E066E9C
:101318003A0EE82EFED7062EFCD700D0060ED9ECE2
:101328000BF0110E066E3A0EE82EFED7062EFCD7ED
:1013380000D01200000E00016B6F000E6A6F000EE5
:10134800696F000E686FF5EC0BF04E0E47EC09F074
:10135800010E066E010E3EEC0AF00001684B692B87
:1013680069BFC0EF09F0695109E13C0E685DD8A07A
:10137800C0EF09F0C2EF09F0C8EF09F0000E696F7D
:10138800000E686F6A4B6B2B00EC0CF0010E066EBA
:10139800010E3EEC0AF06AC09FF06BC0A0F0EEECC4
:1013A80009F0040E066E080E076ED4EC0AF068C049
:1013B8009FF069C0A0F0EEEC09F0410E0001A16FAA
:1013C800EE0EE82EFED7A12FFCD700F0B1EF09F002
:1013D80000EF00F00001A0BFFDEF09F0A05107E108
:1013E8000A0E9F5DD8B0FBEF09F0FDEF09F019EF89
:1013F8000AF0000E5F6E000E5E6EA4EC0AF09FC04D
:1014080001F0A0C002F0000E046E0A0E036EEFECAD
:1014180008F001C06CF002C06DF06CC05EF06DC0E9
:101428005FF0A4EC0AF03DEF0AF09FC001F0A0C005
:1014380002F0000E046E0A0E036E8DEC08F001C077
:101448006EF002C06FF09FC001F0A0C002F0000E65
:10145800046E0A0E036EEFEC08F001C06CF002C0D7
:101468006DF06EC05EF06FC05FF0A4EC0AF011EF93
:101478000AF01200096E59EF0AF00650BF0FD9ECB6
:101488000BF072EF0AF00650930FD9EC0BF072EFE5
:101498000AF00650D30FD9EC0BF072EF0AF00650A1
:1014A8007F0FD9EC0BF072EF0AF00950076E086A4B
:1014B8000850000AD8B463EF0AF053EF0AF0075057
:1014C800020AD8B441EF0AF0010AD8B447EF0AF08B
:1014D800070AD8B44DEF0AF053EF0AF0120052C0D1
:1014E80056F053C057F0000E0001616F000E606F98
:1014F80091EF0AF050C040F051C041F0560E426ED4
:10150800000E436E54C044F055C045F075EC05F02C
:101518004050000160274150612356C0F6FF57C074
:10152800F7FF0800F5500009D8A49DEF0AF09FEFD7
:101538000AF07EEF0AF060C050F061C051F012006E
:101548009B0E586E000E596E010E5A6E080E5B6E99
:101558005EC05CF05FC05DF0FFEC0AF0000E0001B9
:101568009E6F000E9D6FC5EF0AF09B0E9D25D96EEC
:10157800000E9E21DA6EDF50CBEC0BF000019D4B84
:101588009E2B9B0E9D25D96E000E9E21DA6EDF5094
:10159800D8A4D1EF0AF0D3EF0AF0B9EF0AF012009D
:1015A800000E0B6E000E0A6EEAEF0AF00A500624CF
:1015B800086E0B500720096E08C0F6FF09C0F7FF38
:1015C8000800F550CBEC0BF00A4A0B2A0A50062407
:1015D800086E0B500720096E08C0F6FF09C0F7FF18
:1015E8000800F5500009D8A4FCEF0AF0FEEF0AF055
:1015F800DAEF0AF012005C0E0001936F000E946F90
:1016080058C095F059C096F0000E986F000E976F6D
:10161800000E9A6F000E996F950E506E000E516E67
:101628005AC052F05BC053F0930E546E000E556EC4
:1016380073EC0AF0000197515824D96E985159203B
:10164800DA6E000EDF6E1200000E106E000E0F6EC6
:1016580039EF0BF00EC001F0026A0CC003F00DC0A8
:1016680004F0C5EC07F00F4A102A0F500A24D96E6F
:1016780010500B20DA6EDF500E6E0E50D8A447EFD4
:101688000BF049EF0BF02EEF0BF0120014BE57EFE2
:101698000BF0145006E11304D8B055EF0BF057EFD8
:1016A8000BF065EF0BF013C015F014C016F0151E03
:1016B800161E154A162A15C013F016C014F069EF45
:1016C8000BF013C013F014C014F0120001C003F0A3
:1016D80002C004F072EF0BF0014A022A01C0D9FFE0
:1016E80002C0DAFFDF50D8A47CEF0BF07EEF0BF0DE
:1016F80070EF0BF00350015C016E04500258026E4B
:101708001200220EF66E180EF76E000EF86E090023
:10171800F5CFA3F000EE60F0310EEE6AE806FDE1C9
:10172800000EF86E00019EEF09F0C7B49EEF0BF0B3
:10173800A0EF0BF099EF0BF0C5CF01F01F0E0116CB
:10174800D8A4A9EF0BF0ABEF0BF099EF0BF0120058
:10175800046E00017051041204500409BCEC0BF033
:101768000450FB0BBCEC0BF0040EE82EFED7120065
:10177800036E0CEC0CF00001A251E7EC0BF00350E7
:101788000001A311E7EC0BF008EC0CF01200056E59
:10179800010E0001706F0550F00BACEC0BF0053832
:1017A800F00BF00BACEC0BF01200056E000E000114
:1017B800706F0550F00BACEC0BF00538F00BF00B2C
:1017C800ACEC0BF01200026E99EC0BF002C0C9FFF2
:1017D8009EA6F1EF0BF0F3EF0BF0ECEF0BF09E96FB
:1017E8001200280EC66E000EC56E000EC76E010EE2
:1017F800C86E938293801200010ED9EC0BF0030E91
:10180800E82EFED700F0120099EC0BF0C584120008
:0B18180099EC0BF0C5801200120008D4
:020000040020DA
:08000000FFFFFFFFFFFFFFFF00
:020000040030CA
:0E000000000B1F10FF8185FF0FC00FE00F40A7
:00000001FF
