:020000040000FA
:0400000007EF00F016
:10000800068259ED00F08CEF00F09368330ED36E42
:10001800D08EF28EF29CF086F090F19AF08CF088F7
:10002800F092F198F08E94949C0ECB6E040EBE6EF6
:100038000C0EBD6E070ECA6EF19E000E036E010E09
:10004800026E090E016E1C0EE82EFED7012EFCD79B
:1000580000D004500202F3500526540E056437EF11
:1000680000F039EF00F03DEF00F0550E056E026824
:100078000368110E056043EF00F045EF00F04BEF09
:1000880000F0100E056E000E036E010E026E0540A4
:10009800E8423F0B3F0BBE6E0538F00B300B0C09E6
:1000A800BD6E25EF00F007EF00F00600F0A65FEF49
:1000B80000F061EF00F072EF00F0F0A066EF00F0E2
:1000C80068EF00F072EF00F00450D8B46EEF00F063
:1000D80070EF00F071EF00F00406F090F0A877EFF1
:1000E80000F079EF00F08AEF00F0F0A27EEF00F068
:1000F80080EF00F08AEF00F0320E046086EF00F027
:1001080088EF00F089EF00F0042AF09206921100BF
:100118003A0EF66E010EF76E000EF86E0900F5CF76
:1001280004F00900F5CF05F006900692000109EFEA
:0401380000F00110C2
:020000040020DA
:08000000FFFFFFFFFFFFFFFF00
:020000040030CA
:0E0000000009191EFF8080FF0FC00FE00F40A7
:00000001FF
